:100000006BC0000087C0000085C0000083C00000F6
:1000100081C000007FC000007DC000007BC00000E8
:1000200079C0000077C00000BAC7000073C00000AC
:1000300071C000006FC000006DC000006BC0000008
:10004000D7C1000067C0000065C0000063C00000A9
:1000500061C000005FC000005DC000005BC0000028
:1000600059C0000057C0000055C0000053C0000038
:1000700051C000004FC000004DC000004BC0000048
:1000800049C0000047C0000045C00000084AD73BF7
:100090003BCE016E84BCBFFDC12F3D6C74319ABD57
:1000A00056833DDA3D00C77F11BED9E4BB4C3E917B
:1000B0006BAAAABE000000803F05A84CCDB2D44E6A
:1000C000B93836A9020C50B9918688083CA6AAAA6C
:1000D0002ABE000000803F0011241FBECFEFD0E1F8
:1000E000DEBFCDBF11E0A0E0B1E0E2E2FFE200E060
:1000F0000BBF02C007900D92A432B107D9F722E0DE
:10010000A4E2B1E001C01D92AC38B207E1F755D7C7
:100110000C948F1775CF109271008CE08093700053
:1001200008950F931F93CF93DF938A01880F2AE0DE
:1001300030E0E4E7F0E054EAA1E7B0E0C3E7D0E064
:1001400044E874E9508390819923ECF79C91987F5F
:10015000983089F58883408390819923ECF79C91AE
:10016000987F983161F07083908194FDFDCF21508C
:10017000310921F195E39A95F1F70000E3CF6093FF
:10018000730084E880937400E4E7F0E080818823C2
:10019000ECF780917100887F883299F4012BA1F0EF
:1001A00084E980937400E4E7F0E0808184FDFDCF72
:1001B00080E090E00BC08FEF9FEF08C08EEF9FEFC5
:1001C00005C08DEF9FEF02C080E090E0DF91CF91FE
:1001D0001F910F910895AF92BF92DF92EF92FF921D
:1001E0000F931F93CF93DF93E82EEE0CAAE0B0E0BD
:1001F000E4E7F0E084EA0F2EF1E7AF2EB12CF02D0A
:1002000003E710E00F2EF4E8FF2EF02D0F2EF4E997
:10021000DF2EF02D808390819923ECF7E501988102
:10022000987F983009F040C0E801E882F082908120
:100230009923ECF7E5019881987F983121F4141601
:10024000150664F024C0D082908194FDFDCF1197F3
:1002500071F1D5E3DA95F1F70000DCCFDB01460F51
:10026000571F63E770E0E4E7F0E094E801E710E08F
:100270008D91EB018883908380818823ECF7E801DE
:100280008881887F8832B1F4A417B50789F7232BBA
:10029000A1F084E980937400E4E7F0E0808184FDBC
:1002A000FDCF80E090E00BC08FEF9FEF08C08EEF96
:1002B0009FEF05C08DEF9FEF02C080E090E0DF91DF
:1002C000CF911F910F91FF90EF90DF90BF90AF9073
:1002D0000895EF92FF920F931F93CF93DF93880FB0
:1002E00081602AE030E0E4E7F0E014EAA1E7B0E062
:1002F000C3E7D0E004E80F2EF4E9FF2EF02D1083C1
:1003000090819923ECF79C91987F983029F09C91EB
:10031000987F903109F05AC0888300839081992397
:10032000ECF79C91987F903441F441505109141698
:10033000150684F020E030E02BC0F082908194FD1F
:10034000FDCF2150310909F444C095E39A95F1F7A6
:100350000000D5CFDB0120E030E0E4E7F0E094ECF2
:100360000F2EF1E7EF2EF12CF02D03E710E0908334
:1003700080818823ECF7E7018881887F803561F5EB
:10038000E80188818D932F5F3F4F241735077CF359
:1003900084E880937400E4E7F0E080818823ECF740
:1003A00080917100887F8835D1F480917300FB01C2
:1003B000E20FF31F808384E980937400E4E7F0E0A8
:1003C000808184FDFDCF80E090E00BC08FEF9FEF38
:1003D00008C08EEF9FEF05C08AEF9FEF02C089EF44
:1003E0009FEFDF91CF911F910F91FF90EF900895B4
:1003F0001F920F920FB60F9211240BB60F924F92CD
:100400005F926F927F928F929F92AF92BF92CF92A4
:10041000DF92EF92FF920F931F932F933F934F938F
:100420005F936F937F938F939F93AF93BF93EF935C
:10043000FF93CF93DF93CDB7DEB72C97DEBFCDBF51
:1004400086E082BF8091C4019091C501019690938E
:10045000C5018093C4016AE072E082E592E00E94E7
:100460009E0B209118013091190140911A01509171
:100470001B01AAE0B2E06D917D918D919C910E944B
:100480002A144B015C01B7FAB094B7F8B09480928B
:10049000C0019092C101A092C201B092C30120910B
:1004A000140130911501409116015091170160918E
:1004B0000E0270910F0280911002909111020E9421
:1004C0002A146B017C01F7FAF094F7F8F094C092CB
:1004D000BC01D092BD01E092BE01F092BF0120911B
:1004E000100130911101409112015091130160915E
:1004F00012027091130280911402909115020E94D1
:100500002A142B013C0177FA709477F8709440928A
:10051000B8015092B9016092BA017092BB0180910A
:10052000000190910101A0910201B0910301898322
:100530009A83AB83BC83209158013091590140913B
:100540005A0150915B01C501B4010E942A1429810E
:100550003A814B815C810E9491169B01AC01C501DF
:10056000B4010E942A146D837E838F8398876093E1
:100570004C0170934D0180934E0190934F01209157
:100580005401309155014091560150915701C701D6
:10059000B6010E942A1429813A814B815C810E9414
:1005A00091169B01AC01C701B6010E942A1469870C
:1005B0007A878B879C876093480170934901809369
:1005C0004A0190934B01209150013091510140918B
:1005D000520150915301C301B2010E942A14298192
:1005E0003A814B815C810E9491169B01AC01C30151
:1005F000B2010E942A1460934401709345018093D4
:100600004601909347015B016C01D7FAD094D7F86B
:10061000D094E984FA840B851C8517FB109517F993
:1006200010952D813E814F81588550580F2EFEE543
:100630008F2EF2E09F2EF02D60E070E0CB010E9443
:10064000E20C42E452E0B40182ED91E00E94F90E26
:1006500022E432E04FE652E163E07CE3C9010E940C
:10066000201342ED51E062E472E0CA010E94B3122D
:1006700062ED71E0CB010E94830E60E872E082EDD2
:1006800091E00E942C0D80914C0190914D01A09120
:100690004E01B0914F018093580190935901A0935E
:1006A0005A01B0935B018091480190914901A0915A
:1006B0004A01B0914B018093540190935501A0934E
:1006C0005601B09357018091440190914501A0914A
:1006D0004601B09147018093500190935101A0933E
:1006E0005201B093530120910C0130910D014091C2
:1006F0000E0150910F01A2E5B2E06D917D918D91B7
:100700009C910E942A142B013C01609394017093E8
:100710009501809396019093970120910801309163
:10072000090140910A0150910B01609156027091AC
:10073000570280915802909159020E942A144B014D
:100740005C0160939001709391018093920190936A
:1007500093012091040130910501409106015091CF
:10076000070160915A0270915B0280915C02909146
:100770005D020E942A146B017C0160938C017093CE
:100780008D0180938E0190938F0180910001909153
:100790000101A0910201B091030189839A83AB8387
:1007A000BC83209140013091410140914201509120
:1007B0004301C301B2010E942A1429813A814B816D
:1007C0005C810E9491169B01AC01C301B2010E94A1
:1007D0002A142B013C0160933401709335018093FE
:1007E00036019093370120913C0130913D014091B9
:1007F0003E0150913F01C501B4010E942A14298194
:100800003A814B815C810E9491169B01AC01C5012C
:10081000B4010E942A144B015C0160933001709373
:10082000310180933201909333012091380130914E
:10083000390140913A0150913B01C701B6010E9434
:100840002A1429813A814B815C810E9491169B0177
:10085000AC01C701B6010E942A1460932C01709369
:100860002D0180932E0190932F01409240015092D0
:100870004101609242017092430180923C0190924A
:100880003D01A0923E01B0923F0160933801709308
:10089000390180933A0190933B018AE792E00E94EC
:1008A000AC0CAAE7B2E06D917C91072E000C880B8E
:1008B000990B0E948F152091780130917901409118
:1008C0007A0150917B010E942A146B017C01609394
:1008D00084017093850180938601909387016091D4
:1008E0007C0270917D02072E000C880B990B0E94F0
:1008F0008F1520917C0130917D0140917E015091B6
:100900007F010E942A144B015C016093880170935F
:10091000890180938A0190938B0160917E0270918E
:100920007F02072E000C880B990B0E948F152091D7
:1009300074013091750140917601509177010E94C8
:100940002A14DC01CB01B05880938001909381017F
:10095000A0938201B0938301E2EEF1E08082918264
:10096000A282B382C482D582E682F7828087918791
:10097000A287B3878091300190913101A09132011B
:10098000B091330189839A83AB83BC834090340157
:10099000509035016090360170903701C301B2016B
:1009A000905829813A814B815C810E949E146D830D
:1009B0007E838F83988724E13EE245E652E460918E
:1009C00088027091890280918A0290918B020E9424
:1009D000911669877A878B879C872BE13FE245E6F2
:1009E00052E46D817E818F8198850E9491169B01D2
:1009F000AC0169857A858B859C850E942B14609358
:100A0000A8017093A9018093AA019093AB01A3015F
:100A10009201C301B2010E94911669877A878B8780
:100A20009C87A3019201C301B2010E9491162B0180
:100A30003C0129813A814B815C81CA01B9010E9444
:100A400091169B01AC01C301B2010E942B140E94BC
:100A5000FE1620912C0130912D0140912E015091D4
:100A60002F010E949E1424E13EE245E652E40E94DA
:100A700091162B013C016093A4017093A501809312
:100A8000A6019093A701A5019401C701B6010E9498
:100A90009E1424E13EE245E652E40E9491169B0139
:100AA000AC0160919C0170919D0180919E0190919B
:100AB0009F010E942A146093A0017093A10180936A
:100AC000A2019093A30120E030E040E05FE3C30186
:100AD000B2010E94911624E13EE245E652E40E94F2
:100AE000F4142B013C010E94F4166B017C016D8112
:100AF0007E818F8198850E94F4164B015C016D8187
:100B00007E818F8198850E94F11469837A838B831B
:100B10009C83C301B2010E94F1142B013C01A50189
:100B20009401C701B6010E9491166D837E838F8365
:100B3000988729813A814B815C81C701B6010E9467
:100B400091169B01AC010F2EF6E28F2EF2E09F2E44
:100B5000F02DA12CB12C6501ED80FE800F81188550
:100B6000C301B2012FD746EC51E062EE71E0C4013F
:100B70000E945710E6ECF1E02081318142815381DF
:100B800064817581868197810E949E146B017C012E
:100B900024E13EE245E652E460919C0170919D01A2
:100BA00080919E0190919F010E94F414A7019601EB
:100BB0000E942A14609398017093990180939A017E
:100BC00090939B0120E030E040E05FE30E949116AB
:100BD0002B013C010E94F4165B016C01C301B201C0
:100BE0000E94F1140F2EFEEE8F2EF1E09F2EF02DBD
:100BF000E12CF12C8701A8019701E4D646E152E0EF
:100C000066E272E0C4010E94F90E66E172E0CB0177
:100C10000E94830E8091C4019091C50149970CF404
:100C200095C120E030E44CE156E4609150017091B0
:100C3000510180915201909153010E9491160E949E
:100C4000611570932B0160932A0120E030E44CE1A0
:100C500056E46091DA017091DB018091DC019091A2
:100C6000DD010E9491160E94611570932901609325
:100C7000280120E030E44CE156E46091DE017091FF
:100C8000DF018091E0019091E1010E9491160E94A4
:100C90006115709327016093260180912401909142
:100CA00025018A3F91050CF0ABC089E00E94AD138D
:100CB00020E030E44CE156E46091D2017091D30120
:100CC0008091D4019091D5010E9491160E946115E6
:100CD000CB010E94B51389E00E94AD1380912A01D7
:100CE00090912B010E94B51389E00E94AD13809171
:100CF0002801909129010E94B51389E00E94AD134B
:100D000080912601909127010E94B51389E00E94ED
:100D1000AD1389E00E94AD1360912B0180912401F5
:100D2000909125019C01220F331F820F931F70E0C9
:100D3000880F991F0E947F1760912A0170912B01E3
:100D4000772780912401909125019C01220F331F68
:100D5000820F931F880F991F01960E947F17609141
:100D6000290180912401909125019C01220F331FBC
:100D7000820F931F880F991F70E002960E947F17C1
:100D80006091280170912901772780912401909129
:100D900025019C01220F331F820F931F880F991F7B
:100DA00003960E947F176091270180912401909102
:100DB00025019C01220F331F820F931F880F991F5B
:100DC00070E004960E947F176091260170912701C0
:100DD000772780912401909125019C01220F331FD8
:100DE000820F931F880F991F05960E947F1780918D
:100DF000240190912501019690932501809324016F
:100E0000AFE3BCE91197F1F700C0000060E872E0C1
:100E100086E192E021D620E030E44CE156E4609196
:100E200034017091350180913601909137010E9413
:100E300091160E946115CB010E94B51389E00E94B2
:100E4000AD1320E030E44CE156E460913001709144
:100E5000310180913201909133010E9491160E94DC
:100E60006115CB010E94B51389E00E94AD1320E00B
:100E700030E44CE156E460912C0170912D01809199
:100E80002E0190912F010E9491160E946115CB01B5
:100E90000E94B51389E00E94AD13609188017091A2
:100EA000890180918A0190918B010E946115CB018B
:100EB0000E94B51389E00E94AD1360918401709186
:100EC000850180918601909187010E946115CB0177
:100ED0000E94B51389E00E94AD136091800170916A
:100EE000810180918201909183010E946115CB0163
:100EF0000E94B51389E00E94AD138AE00E94AD13F1
:100F0000B3B5B98320E030E048EC52E4609144018D
:100F10007091450180914601909147010E94911680
:100F20006B017C01E9816E2F70E080E090E00E940F
:100F30008F159B01AC01C701B6010E942B140E94C2
:100F4000611563BD1092C5011092C4012C960FB6B5
:100F5000F894DEBF0FBECDBFDF91CF91FF91EF912F
:100F6000BF91AF919F918F917F916F915F914F91C1
:100F70003F912F911F910F91FF90EF90DF90CF90B5
:100F8000BF90AF909F908F907F906F905F904F90A9
:100F90000F900BBE0F900FBE0F901F9018951F92D1
:100FA0000F920FB60F9211248F9386E084BD8F911C
:100FB0000F900FBE0F901F9018954F925F926F92F7
:100FC0007F928F929F92AF92BF92CF92DF92EF92D9
:100FD000FF920F931F93CF93DF932FEF33ED80E3B7
:100FE000215030408040E1F700C000000E9495137E
:100FF00060E87AE186E090E0B8D29FEF23ED30E33D
:10100000915020403040E1F700C0000013BE86E060
:1010100082BF84BD88E685BD13BCBF9A81E087BFCF
:1010200083B7876083BF85B5836085BD6AE072E062
:1010300082E592E083D38AE792E046D4CAE7D2E021
:10104000888199810E94B51389E00E94AD138A813D
:101050009B810E94B51389E00E94AD138C819D8114
:101060000E94B5138AE00E94AD138FE39CE90197BB
:10107000F1F700C0000004E610E06AE072E082E5EB
:1010800092E05CD3CAE0D2E0288139814A815B8159
:101090006091B4017091B5018091B6019091B70152
:1010A0000E942B146093B4017093B5018093B60134
:1010B0009093B7012C813D814E815F816091B00199
:1010C0007091B1018091B2019091B3010E942B14F3
:1010D0006093B0017093B1018093B2019093B3011A
:1010E000288539854A855B856091AC017091AD0199
:1010F0008091AE019091AF010E942B146093AC01DE
:101100007093AD018093AE019093AF018AE792E0B6
:1011100023D4CAE7D2E068817981072E000C880BBE
:10112000990B0E948F1520917C0130917D01409197
:101130007E0150917F010E942A149B01AC016091B5
:1011400070017091710180917201909173010E9400
:101150002B146093700170937101809372019093CE
:1011600073016A817B81072E000C880B990B0E940A
:101170008F15209178013091790140917A01509139
:101180007B010E942A149B01AC0160916C0170915B
:101190006D0180916E0190916F010E942B146093FC
:1011A0006C0170936D0180936E0190936F016C815F
:1011B0007D81072E000C880B990B0E948F152091C2
:1011C00074013091750140917601509177010E9430
:1011D0002A149B01AC0160916801709169018091B2
:1011E0006A0190916B010E942B14609368017093C7
:1011F000690180936A0190936B018FE39CE90197E9
:10120000F1F700C000000150110909F036CF20E0CD
:1012100030E040E05FE36091B4017091B5018091EE
:10122000B6019091B7010E94911620E030E04AE7A4
:1012300054E40E94F4146B017C0120E030E040E0B3
:101240005FE3609118017091190180911A019091EA
:101250001B010E9491169B01AC01C701B6010E94BF
:101260002B146B017C01609318017093190180931A
:101270001A0190931B0120E030E040E05FE36091B1
:10128000B0017091B1018091B2019091B3010E94BF
:10129000911620E030E04AE754E40E94F4144B0138
:1012A0005C0120E030E040E05FE360911401709168
:1012B000150180911601909117010E9491169B01D2
:1012C000AC01C501B4010E942B146093140170930A
:1012D000150180931601909317012AE939E949E92C
:1012E0005EE36091AC017091AD018091AE0190918F
:1012F000AF010E94911620E030E04AE754E40E94DA
:10130000F4144B015C0123E333E343E35FE36091B7
:1013100010017091110180911201909113010E94AE
:1013200091169B01AC01C501B4010E942B1460937E
:10133000100170931101809312019093130120E02A
:1013400030E048EC52E4609170017091710180913D
:101350007201909173010E94F4144B015C0160933F
:10136000640170936501809366019093670120E0AA
:1013700030E048EC52E460916C0170916D01809115
:101380006E0190916F010E94F4142B013C01609357
:10139000600170936101809362019093630120E08A
:1013A00030E048EC52E460916801709169018091ED
:1013B0006A0190916B010E94F41460935C01709338
:1013C0005D0180935E0190935F01A3019201C501CD
:1013D000B4010E949E1424E13EE245E652E40E94DC
:1013E000911660939C0170939D0180939E01909350
:1013F0009F0120E030E543EC57E4C701B6010E94AD
:1014000091160E945C15CB010E94B51389E00E94E1
:10141000AD1320E030E543EC57E460911401709186
:10142000150180911601909117010E9491160E945A
:101430005C15CB010E94B51389E00E94AD1320E03A
:1014400030E543EC57E460911001709111018091F7
:101450001201909113010E9491160E945C15CB011C
:101460000E94B51389E00E94AD1389E00E94AD137C
:1014700060919C0170919D0180919E0190919F01CE
:101480000E945C15CB010E94B51389E00E94AD1348
:101490008AE00E94AD139FEF23ED30E3915020408E
:1014A0003040E1F700C0000082ED91E0BBD27894BB
:1014B0008AE00E94AD138FEF97E823E181509040BE
:1014C0002040E1F700C0000084E683BD3AEA86EEE2
:1014D00096E921E03150804090402040D9F700004B
:1014E00080E090E0DF91CF911F910F91FF90EF90FE
:1014F000DF90CF90BF90AF909F908F907F906F9034
:101500005F904F900895CF93DF9300D0CDB7DEB7B3
:1015100089836A8321E030E042E050E0BE016F5FE2
:101520007F4F88E60E94EB000F900F90DF91CF91E4
:1015300008950F931F93CF93DF93EB018A01682FD8
:10154000606840E050E088E60E949100992334F002
:10155000A801BE0188E60E94690102C08FEF9FEFDB
:10156000DF91CF911F910F9108950E948B0060E849
:101570008BE6C9DF8FE39CE90197F1F700C000001B
:101580008FE39CE90197F1F700C000008FE39CE92D
:101590000197F1F700C000008FE39CE90197F1F794
:1015A00000C000008FE39CE90197F1F700C0000044
:1015B0008FE39CE90197F1F700C000008FE39CE9FD
:1015C0000197F1F700C000008FE39CE90197F1F764
:1015D00000C000008FE39CE90197F1F700C0000014
:1015E0008FE39CE90197F1F700C0000067E088E60F
:1015F0008ADF8FE39CE90197F1F700C000008FE3D9
:101600009CE90197F1F700C000008FE39CE9019786
:10161000F1F700C000008FE39CE90197F1F700C0EB
:1016200000008FE39CE90197F1F700C000008FE311
:101630009CE90197F1F700C000008FE39CE9019756
:10164000F1F700C000008FE39CE90197F1F700C0BB
:1016500000008FE39CE90197F1F700C000008FE3E1
:101660009CE90197F1F700C0000060E088E64BDFDD
:101670008FE39CE90197F1F700C0000060E28AE681
:1016800042DF6DE084E23FDF8FE39CE90197F1F7F1
:1016900000C000006CE085E236DF6BE086E233DFFD
:1016A00061E083E630DF61E887E22DDF9FEF20E72E
:1016B00082E0915020408040E1F700C000006CE0E3
:1016C00085E221DF6AE086E21EDF60E183E61BDF60
:1016D00061E887E218DF9FEF20E782E09150204029
:1016E0008040E1F700C000006CE085E20CDF6AE0BA
:1016F00086E209DF66E183E606DF61E887E203DF71
:101700009FEF20E782E0915020408040E1F700C049
:1017100000006CE885E2F7DE63E086E2F4DE67E86D
:1017200087E2F1DE9FEF20E782E091502040804089
:10173000E1F700C0000080E090E008958F929F9252
:10174000AF92BF92CF92DF92EF92FF920F931F93CF
:10175000CF93DF93CDB7DEB76A970FB6F894DEBFAD
:101760000FBECDBF7C018B014EE050E0BE016F5F2C
:101770007F4F8BE3DEDE99230CF491C08A818F8743
:101780008981888B8A858D8B89858E8B8C81898BCD
:101790008B818A8B8C858F8B8B85888F8E818B8BB1
:1017A0008D818C8B8E85898F8D858A8F809020018D
:1017B00090902101A0902201B09023016F8578893B
:1017C000072E000C880B990B0E948F15A501940120
:1017D0000E949116F70160837183828393836989E4
:1017E0007A89072E000C880B990B0E948F15A50192
:1017F00094010E949116F701648375838683978311
:101800006B897C89072E000C880B990B0E948F1521
:10181000A50194010E949116F70160877187828764
:101820009387C0901C01D0901D01E0901E01F090A4
:101830001F016D897E89072E000C880B990B0E9471
:101840008F15A70196010E949116F801608371839C
:10185000828393836F89788D072E000C880B990BF8
:101860000E948F15A70196010E949116F8016483CA
:10187000758386839783698D7A8D072E000C880B7C
:10188000990B0E948F15A70196010E949116F801ED
:10189000608771878287938780E090E002C08FEF36
:1018A0009FEF6A960FB6F894DEBF0FBECDBFDF91F3
:1018B000CF911F910F91FF90EF90DF90CF90BF904D
:1018C000AF909F908F9008950F931F93CF93DF93C6
:1018D00000D000D000D0CDB7DEB7082F192F6CE8AC
:1018E00085E211DE63E086E20EDE67E887E20BDE6A
:1018F0002FEF80E792E0215080409040E1F700C058
:10190000000046E050E0BE016F5F7F4F89E411DECA
:101910009923ACF0FE013196A02FB12F9E01295FD3
:101920003F4F80818C93818111968C9311973296D1
:101930001296E217F307A9F780E090E002C08FEF5C
:101940009FEF26960FB6F894DEBF0FBECDBFDF9196
:10195000CF911F910F9108950F931F93CF93DF9312
:1019600000D000D000D0CDB7DEB7082F192F46E049
:1019700050E0BE016F5F7F4F89E4DBDD9923ACF05F
:10198000FE013196A02FB12F9E01295F3F4F80812C
:101990008C93818111968C93119732961296E2174F
:1019A000F307A9F780E090E002C08FEF9FEF269643
:1019B0000FB6F894DEBF0FBECDBFDF91CF911F9160
:1019C0000F9108958F929F92AF92BF92CF92DF9224
:1019D000EF92FF920F931F93CF93DF93CDB7DEB7B4
:1019E000F401309711F40E947B1760837183828326
:1019F00093832483358346835783E086F186028769
:101A00001387A486B586C686D786DF91CF911F91AE
:101A10000F91FF90EF90DF90CF90BF90AF909F908D
:101A20008F900895FC01892B11F40E947B1780E0B0
:101A300090E0A0E8BFE380839183A283B383148204
:101A400015821682178210861186128613861486D6
:101A500015861686178608954F925F926F927F9231
:101A60008F929F92AF92BF92CF92DF92EF92FF92AE
:101A70000F931F93CF93DF9300D000D000D0CDB74A
:101A8000DEB79E838D838B01672B11F40E947B1739
:101A9000ED81FE812081318142815381648575858C
:101AA000868597854BD79B01AC01D5D66B017C0110
:101AB000F8016087718782879387ED81FE81248199
:101AC000358146815781608571858285938536D7BA
:101AD0004B015C0120E030E040E05FE3C701B6016C
:101AE0000E949116A5019401B6D6F8016083718316
:101AF00082839383ED81FE8180809180A280B38078
:101B0000C484D584E684F784A5019401C501B40199
:101B10000E9491164B015C01A7019601C701B60115
:101B20000E9491169B01AC01C501B40194D60E949C
:101B3000FE1669837A838B839C83ED81FE8180848A
:101B40009184A284B384C480D580E680F780A50107
:101B50009401C501B4010E9491164B015C01A701DB
:101B60009601C701B6010E9491169B01AC01C50107
:101B7000B40171D60E94FE1629813A814B815C81A5
:101B8000DDD69B01AC0167D6F8016483758386833B
:101B9000978326960FB6F894DEBF0FBECDBFDF91B8
:101BA000CF911F910F91FF90EF90DF90CF90BF905A
:101BB000AF909F908F907F906F905F904F9008951F
:101BC0004F925F926F927F928F929F92AF92BF924D
:101BD000CF92DF92EF92FF92CF93DF93CDB7DEB734
:101BE00028970FB6F894DEBF0FBECDBFFC01892B3E
:101BF00011F40E947B1780809180A280B380C48002
:101C0000D580E680F78080859185A285B3858D8318
:101C10009E83AF83B8874484558466847784A50106
:101C20009401C501B4010E94911669837A838B8364
:101C30009C83A7019601C701B6010E9491169B01E2
:101C4000AC0169817A818B819C8105D669837A8315
:101C50008B839C832D813E814F815885CA01B901B8
:101C60000E9491169B01AC0169817A818B819C81D4
:101C7000F2D569837A838B839C83A5019401C50186
:101C8000B4010E9491164B015C01A7019601C701A6
:101C9000B6010E9491169B01AC01C501B401DBD5D0
:101CA0006B017C012D813E814F815885CA01B901AC
:101CB0000E9491169B01AC01C701B601CCD56B0106
:101CC0007C01A3019201C301B2010E9491169B0104
:101CD000AC01C701B601BFD50E94FE1628960FB60B
:101CE000F894DEBF0FBECDBFDF91CF91FF90EF9094
:101CF000DF90CF90BF90AF909F908F907F906F902C
:101D00005F904F9008954F925F926F927F928F9263
:101D10009F92AF92BF92CF92DF92EF92FF920F937A
:101D20001F93CF93DF9300D000D000D0CDB7DEB7A4
:101D30008C017E836D83672B11F40E947B1740DF3B
:101D400069837A838B839C839B01AC01F801648552
:101D500075858685978548D66B017C0129813A81F6
:101D60004B815C81F80160857185828593853CD6C5
:101D70004B015C0129813A814B815C81F8016481CE
:101D800075818681978130D62B013C0129813A816A
:101D90004B815C81F801608171818281938124D6BD
:101DA000ED81FE81608371838283938344825582B7
:101DB0006682778280869186A286B386C486D5861F
:101DC000E686F78626960FB6F894DEBF0FBECDBF27
:101DD000DF91CF911F910F91FF90EF90DF90CF9007
:101DE000BF90AF909F908F907F906F905F904F903B
:101DF00008954F925F926F927F928F929F92AF92CF
:101E0000BF92CF92DF92EF92FF92CF93DF93CDB745
:101E1000DEB76A970FB6F894DEBF0FBECDBFDC0108
:101E2000FB015A8F498F452B11F40E947B17CD90EF
:101E3000DD90ED90FC901397208131814281538198
:101E400029833A834B835C8314962D913D914D9168
:101E50005C9117972D833E834F835887248135816A
:101E60004681578129873A874B875C8718962D9141
:101E70003D914D915C911B972D873E874F87588BE5
:101E80002085318542855385298B3A8B4B8B5C8B22
:101E90001C962D913D914D915C911F972D8B3E8B02
:101EA0004F8B588F84849584A684B78429813A8186
:101EB0004B815C81C701B60134D72B013C012985D8
:101EC0003A854B855C856D817E818F81988529D788
:101ED0009B01AC01C301B201BDD42B013C01298996
:101EE0003A894B895C896D857E858F85988919D75C
:101EF0009B01AC01C301B201ADD42B013C01A50192
:101F000094016D897E898F89988D0BD79B01AC01D7
:101F1000C301B2019FD4E98DFA8D608371838283FE
:101F200093832D813E814F81588569817A818B8190
:101F30009C81F7D62B013C0129853A854B855C8530
:101F4000C701B601EED69B01AC01C301B20183D437
:101F50002B013C01A50194016D857E858F859889B3
:101F6000E0D69B01AC01C301B20175D42B013C0149
:101F70002D893E894F89588D69897A898B899C89F9
:101F8000D0D69B01AC01C301B20164D4E98DFA8DB6
:101F9000648375838683978329893A894B895C8911
:101FA000C701B601BED62B013C01A50194016D818C
:101FB0007E818F819885B5D69B01AC01C301B201AA
:101FC00049D42B013C012D853E854F855889698177
:101FD0007A818B819C81A5D69B01AC01C301B201A2
:101FE0003AD42B013C012D893E894F89588D698552
:101FF0007A858B859C8595D69B01AC01C301B20186
:102000002AD4E98DFA8D6087718782879387A5012D
:102010009401C701B60185D66B017C0129893A89F3
:102020004B895C896D817E818F8198857AD69B01F1
:10203000AC01C701B6010FD46B017C012D853E8533
:102040004F85588969857A858B859C856AD69B01E1
:10205000AC01C701B601FED36B017C012D893E891D
:102060004F89588D69817A818B819C815AD69B01D9
:10207000AC01C701B601EFD3E98DFA8D648775878E
:10208000868797876A960FB6F894DEBF0FBECDBFDE
:10209000DF91CF91FF90EF90DF90CF90BF90AF9006
:1020A0009F908F907F906F905F904F9008952F92A8
:1020B0003F924F925F926F927F928F929F92AF92D8
:1020C000BF92CF92DF92EF92FF920F931F93CF9325
:1020D000DF93CDB7DEB7E0970FB6F894DEBF0FBE43
:1020E000CDBF9A8389838B011A01452B09F403D74D
:1020F000A981BA81CD90DD90ED90FC90A701960169
:10210000C701B6010ED6698B7A8B8B8B9C8BA9810C
:10211000BA8114968D919D910D90BC91A02D8D87C3
:102120009E87AF87B88B9C01AD01BC01CD01F9D56D
:102130006D8B7E8B8F8B988FE981FA81808491845F
:10214000A284B384A5019401C501B401EAD5698FC5
:102150007A8F8B8F9C8FA981BA811C964D905D9050
:102160006D907C901F97A3019201C301B201D9D554
:102170006D8F7E8F8F8F98A3D8018D919D910D903B
:10218000BC91A02D89839A83AB83BC83A501940164
:10219000C701B601C6D59B01AC015DD369A37AA383
:1021A0008BA39CA3D80118968D919D910D90BC9105
:1021B000A02D8D839E83AF83B887A3019201C701B1
:1021C000B601AFD59B01AC0146D36DA37EA38FA30F
:1021D00098A7D80114968D919D910D90BC91A02D3A
:1021E00089879A87AB87BC87A50194016D857E8519
:1021F0008F85988996D59B01AC012DD369A77AA7C5
:102200008BA79CA7A30192016D857E858F859889F8
:1022100088D59B01AC011FD36DA77EA78FA798AB74
:10222000A3019201C501B4017CD59B01AC0113D37C
:102230004B015C012D853E854F855889C701B6014C
:1022400070D59B01AC0107D32B013C0129813A8158
:102250004B815C8169897A898B899C8962D56B0104
:102260007C012D813E814F81588569A17AA18BA186
:102270009CA157D59B01AC01C701B601ECD26B0103
:102280007C0129853A854B855C856DA17EA18FA156
:1022900098A547D59B01AC01C701B601DBD26B0104
:1022A0007C0129813A814B815C816D897E898F898E
:1022B000988D37D59B01AC01C701B601CCD26B011B
:1022C0007C0129A53AA54BA55CA569857A858B85F6
:1022D0009C8527D59B01AC01C701B601BCD26B011F
:1022E0007C012DA53EA54FA558A96D817E818F81CA
:1022F000988517D59B01AC01C701B601ACD26B0123
:102300007C0129813A814B815C816D8D7E8D8F8D21
:1023100098A107D59B01AC01C701B6019BD26B0107
:102320007C0129813A814B815C81698D7A8D8B8D0D
:102330009C8DF7D49B01AC01C701B6018BD2F10192
:10234000608371838283938329A53AA54BA55CA5FD
:1023500069817A818B819C81E4D46B017C01298520
:102360003A854B855C85698D7A8D8B8D9C8DD9D412
:102370009B01AC01C701B6016ED26B017C01A501C6
:1023800094016D817E818F819885CBD49B01AC01B6
:10239000C701B60160D26B017C012DA13EA14FA106
:1023A00058A569817A818B819C81BBD49B01AC014A
:1023B000C701B60150D26B017C0129853A854B8556
:1023C0005C856D8D7E8D8F8D98A1ABD49B01AC010A
:1023D000C701B6013FD26B017C0129853A854B8547
:1023E0005C8569897A898B899C899BD49B01AC0126
:1023F000C701B60130D26B017C01A30192016D814E
:102400007E818F8198858DD49B01AC01C701B60177
:1024100021D26B017C0129853A854B855C856D89CC
:102420007E898F89988D7DD49B01AC01C701B6014F
:1024300011D2D10114966D937D938D939C93179730
:102440002DA53EA54FA558A969817A818B819C81D4
:1024500068D46B017C01A501940169857A858B851F
:102460009C855FD49B01AC01C701B601F4D16B011F
:102470007C012D813E814F8158856D8D7E8D8F8DA4
:1024800098A14FD49B01AC01C701B601E4D16B0107
:102490007C0129A13AA14BA15CA169817A818B8140
:1024A0009C813FD49B01AC01C701B601D3D16B0124
:1024B0007C012D813E814F815885698D7A8D8B8D70
:1024C0009C8D2FD49B01AC01C701B601C3D16B0118
:1024D0007C01A301920169857A858B859C8521D435
:1024E0009B01AC01C701B601B6D16B017C012D8106
:1024F0003E814F8158856D897E898F89988D11D451
:102500009B01AC01C701B601A5D16B017C012D81F6
:102510003E814F81588569897A898B899C8901D44C
:102520009B01AC01C701B60196D1F10160877187AB
:1025300082879387E0960FB6F894DEBF0FBECDBFBB
:10254000DF91CF911F910F91FF90EF90DF90CF908F
:10255000BF90AF909F908F907F906F905F904F90C3
:102560003F902F9008952F923F924F925F926F92DB
:102570007F928F929F92AF92BF92CF92DF92EF9213
:10258000FF920F931F93CF93DF931C018B01EA01FE
:10259000209709F4B0D4FB0124813581468157810D
:1025A000FC01648175818681978155D12B013C01A5
:1025B000F8012085318542855385F101608571855B
:1025C0008285938548D14B015C01F80124853585CE
:1025D00046855785F10164857585868597853BD14C
:1025E0006B017C01F8012081318142815381F1012D
:1025F00060817181828193812ED1688379838A83FE
:102600009B834C825D826E827F8288869986AA86B1
:10261000BB86CC86DD86EE86FF86DF91CF911F914B
:102620000F91FF90EF90DF90CF90BF90AF909F9071
:102630008F907F906F905F904F903F902F90089574
:102640004F925F926F927F928F929F92AF92BF92C2
:10265000CF92DF92EF92FF920F931F93CF93DF936E
:1026600000D000D000D0CDB7DEB79E838D834983E4
:102670005A836B837C838901FC01248135814681E7
:10268000578169817A818B819C814BD32B013C01DD
:10269000ED81FE81208531854285538569817A816E
:1026A0008B819C813ED34B015C01ED81FE812485B1
:1026B00035854685578569817A818B819C8131D3A7
:1026C0006B017C0129813A814B815C81ED81FE8126
:1026D000608171818281938124D3F8016083718349
:1026E0008283938344825582668277828086918634
:1026F000A286B386C486D586E686F78626960FB66A
:10270000F894DEBF0FBECDBFDF91CF911F910F9127
:10271000FF90EF90DF90CF90BF90AF909F908F9001
:102720007F906F905F904F9008951092980080E195
:1027300080939900EBE9F0E0808182608083EDE98D
:10274000F0E0808186608083EAE9F0E0808180614A
:1027500080838081886080830895EBE9F0E0908138
:1027600095FFFDCF80939C000895EF92FF920F9309
:102770001F93CF93DF9300D000D000D0CDB7DEB74A
:1027800020E330E03A832983FE01339624E0DF0121
:102790001D922A95E9F7181619060CF049C03297D0
:1027A00000E010E00F2EFAE0EF2EF12CF02D01C02A
:1027B0008901B70179D3805D8193862F972F980186
:1027C0002F5F3F4F0097A1F7FE01E20FF31F118229
:1027D0001FC091958195910989F0FE01319600E025
:1027E00010E02AE030E0B9015FD3805D8193862F4D
:1027F000972F0F5F1F4F0097B1F702C000E010E066
:10280000FE01E00FF11F1182015011098DE2A5DFD9
:1028100011239CF0CE01800F911FFC0132967F01A5
:10282000D7018E917D0199DF01501109CAF705C0CA
:1028300099237CF200E010E0EDCF26960FB6F894D5
:10284000DEBF0FBECDBFDF91CF911F910F91FF90E3
:10285000EF9008955058BB27AA270ED010C2D9D1A7
:1028600030F0DED120F031F49F3F11F41EF498C116
:102870000EF4E095E7FB8EC1E92F23D280F3BA175F
:10288000620773078407950718F071F49EF53BC241
:102890000EF4E0950B2EBA2FA02D0B01B90190017B
:1028A0000C01CA01A0011124FF27591B99F0593FBF
:1028B00050F4503E68F11A16F040A22F232F342F07
:1028C0004427585FF3CF469537952795A795F04055
:1028D0005395C9F77EF41F16BA0B620B730B840B6A
:1028E000BAF09150A1F0FF0FBB1F661F771F881F22
:1028F000C2F70EC0BA0F621F731F841F48F487957A
:1029000077956795B795F7959E3F08F0B3CF939568
:10291000880F08F09927EE0F97958795089579D13C
:1029200058F080E891E009F49EEF7AD128F040E871
:1029300051E059F45EEF09C033C1E5C1E92FE078F9
:10294000C0D168F3092E052AC1F3261737074807B7
:10295000590738F00E2E07F8E02569F0E025E0640D
:102960000AC0EF6307F8009407FADB01B9019D0183
:10297000DC01CA01AD01EF9346D081D10AD05F914D
:10298000552331F02BED3FE049E450FD49EC63CF96
:102990000895DF93DD27B92FBF7740E85FE3161670
:1029A000170648075B0710F4D92FB4D19F938F9374
:1029B0007F936F9361D2ECE8F0E0F5D060D12F9176
:1029C0003F914F915F91B9D1DD2349F09058A2EA30
:1029D0002AED3FE049EC5FE3D0785D274DDFDF91E2
:1029E0004EC126D1E3955CC10CD049C119D140F04C
:1029F00010D130F021F45F3F19F0CCC0511184C1E7
:102A0000CFC05FD198F39923C9F35523B1F3951B38
:102A1000550BBB27AA2762177307840738F09F5FFF
:102A20005F4F220F331F441FAA1FA9F333D00E2E6E
:102A30003AF0E0E830D091505040E695001CCAF7DB
:102A400029D0FE2F27D0660F771F881FBB1F2617A0
:102A500037074807AB07B0E809F0BB0B802DBF0173
:102A6000FF2793585F4F2AF09E3F510568F092C0B0
:102A70004BC15F3FECF3983EDCF386957795679505
:102A8000B795F7959F5FC9F7880F911D9695879524
:102A900097F90895E1E0660F771F881FBB1F621743
:102AA00073078407BA0720F0621B730B840BBA0B01
:102AB000EE1F88F7E095089504D06894B11124C101
:102AC000089507D188F09F5790F0B92F9927B751F3
:102AD000A0F0D1F0660F771F881F991F1AF0BA95E2
:102AE000C9F712C0B13081F00ED1B1E008950BC129
:102AF000672F782F8827B85F39F0B93FCCF38695D8
:102B000077956795B395D9F73EF490958095709534
:102B100061957F4F8F4F9F4F0895E89409C097FBB1
:102B20003EF490958095709561957F4F8F4F9F4FA4
:102B30009923A9F0F92F96E9BB279395F6958795E8
:102B400077956795B795F111F8CFFAF4BB0F11F4AB
:102B500060FF1BC06F5F7F4F8F4F9F4F16C0882352
:102B600011F096E911C0772321F09EE8872F762F88
:102B700005C0662371F096E8862F70E060E02AF0C9
:102B80009A95660F771F881FDAF7880F96958795B5
:102B900097F9089597F99F6780E870E060E00895DD
:102BA0009FEF80EC0895DF93CF931F930F93FF92D5
:102BB000EF92DF927B018C01689405C0DA2EEF0161
:102BC000BCD0FE01E894A591259135914591559190
:102BD000AEF3EF0151DEFE019701A801DA9479F717
:102BE000DF90EF90FF900F911F91CF91DF910895AB
:102BF0009F938F937F936F93FF93EF939B01AC0110
:102C000090D0EF91FF91CFDF2F913F914F915F9146
:102C100088C000240A941616170618060906089597
:102C200000240A9412161306140605060895B8CF58
:102C300050D0E8F3E894E0E0BB279F57F0F02AED8E
:102C40003FE049EC06C0EE0FBB0F661F771F881FE1
:102C500028F0B23A62077307840728F0B25A620B71
:102C6000730B840BE3959A9572F7803830F49A953C
:102C7000BB0F661F771F881FD2F7904802C1092E2D
:102C80000394000C11F4882352F0BB0F40F4BF2BC7
:102C900011F460FF04C06F5F7F4F8F4F9F4F089507
:102CA000EF93E0FF06C0A2EA2AED3FE049EC5FEBBC
:102CB000E3DDE5DF0F90039401FC9058E9EBF0E0D1
:102CC00097CF57FD9058440F551F59F05F3F71F053
:102CD0004795880F97FB991F61F09F3F79F0879583
:102CE0000895121613061406551FF2CF4695F1DF0C
:102CF00008C0161617061806991FF1CF869571059C
:102D0000610508940895E894BB2766277727CB01CF
:102D100097F908959B01AC0160E070E080E89FE3C3
:102D200063CE0BD0ACCF75DF28F07ADF18F0952397
:102D300009F030CF35CF1124E7CFC3DFA0F3959F43
:102D4000D1F3950F50E0551F629FF001729FBB2792
:102D5000F00DB11D639FAA27F00DB11DAA1F649F3E
:102D60006627B00DA11D661F829F2227B00DA11DF1
:102D7000621F739FB00DA11D621F839FA00D611D77
:102D8000221F749F3327A00D611D231F849F600D98
:102D9000211D822F762F6A2F11249F5750408AF0D1
:102DA000E1F088234AF0EE0FFF1FBB1F661F771F5D
:102DB000881F91505040A9F79E3F510570F0EACE10
:102DC000A3CF5F3FECF3983EDCF38695779567954C
:102DD000B795F795E7959F5FC1F7FE2B880F911D7B
:102DE0009695879597F908959F9322DF0F9007FC9A
:102DF000EE5F56CF11F40EF4D3CE41C06ADFD0F3AC
:102E00009923D9F3CEF39F57550B87FF46D0002463
:102E1000A0E640EA900180585695979528F4805C8A
:102E2000660F771F881F20F026173707480730F4F2
:102E3000621B730B840B202931294A2BA69517940A
:102E40000794202531254A2758F7660F771F881FDA
:102E500020F026173707480730F4620B730B840BFA
:102E6000200D311D411DA09581F7B901842F915886
:102E7000880F9695879508959B01AC0152CF9F3F8F
:102E800031F0915020F4879577956795B795880F25
:102E9000911D9695879597F9089591505040660F2A
:102EA000771F881FD2F7089597FB072E16F400941A
:102EB00006D077FD08D00BD007FC05D03EF49095E6
:102EC00081959F4F0895709561957F4F0895AA1B36
:102ED000BB1B51E107C0AA1FBB1FA617B70710F005
:102EE000A61BB70B881F991F5A95A9F78095909537
:102EF000BC01CD01089581E090E0F89410C002D0AB
:102F0000272F01C0262FE199FECF9FBB8EBB2DBB83
:102F10000FB6F894E29AE19A0FBE01960895F894DC
:022F2000FFCFE1
:102F2200C3F5283F10E9EFBF3AAF193F4F3B2C3FA3
:102F3200365923BC11C7BABB62D68BBCFDB30B3961
:042F4200CDCC1C3A9C
:00000001FF
