S02400003233303732345F4D61696E20494D552073656E73696E6720636F64652E737265630D
S113000045C0000061C000005FC000005DC000008A
S11300105BC0000059C0000057C0000055C000007C
S113002053C0000051C00000BDC100004DC000001D
S11300304BC0000049C0000047C0000045C000009C
S113004050C2000041C000003FC000003DC000009D
S11300503BC0000039C0000037C0000035C00000BC
S113006033C0000031C000002FC000002DC00000CC
S11300702BC0000029C0000027C0000025C00000DC
S113008023C0000021C000001FC0000011241FBEB7
S1130090CFEFD0E1DEBFCDBF11E0A0E0B1E0E4EEF0
S11300A0F3E100E00BBF02C007900D92A432B10748
S11300B0D9F721E0A4E2B1E001C01D92A839B2074A
S11300C0E1F749D40C94F0099BCF109271008CE0B5
S11300D08093700008950F931F93CF93DF938A0149
S11300E0880F2AE030E0E4E7F0E054EAA1E7B0E06A
S11300F0C3E7D0E044E874E9508390819923ECF796
S11301009C91987F983089F58883408390819923C6
S1130110ECF79C91987F983161F07083908194FD05
S1130120FDCF2150310921F195E39A95F1F70000B3
S1130130E3CF6093730084E880937400E4E7F0E015
S113014080818823ECF780917100887F883299F44C
S1130150012BA1F084E980937400E4E7F0E080814E
S113016084FDFDCF80E090E00BC08FEF9FEF08C0CF
S11301708EEF9FEF05C08DEF9FEF02C080E090E00F
S1130180DF91CF911F910F910895AF92BF92DF92AB
S1130190EF92FF920F931F93CF93DF93E82EEE0C11
S11301A0AAE0B0E0E4E7F0E084EA0F2EF1E7AF2E36
S11301B0B12CF02D03E710E00F2EF4E8FF2EF02D04
S11301C00F2EF4E9DF2EF02D808390819923ECF734
S11301D0E5019881987F983009F040C0E801E882F1
S11301E0F08290819923ECF7E5019881987F98310A
S11301F021F41416150664F024C0D082908194FD75
S1130200FDCF119771F1D5E3DA95F1F70000DCCF5A
S1130210DB01460F571F63E770E0E4E7F0E094E882
S113022001E710E08D91EB0188839083808188231E
S1130230ECF7E8018881887F8832B1F4A417B50708
S113024089F7232BA1F084E980937400E4E7F0E0BC
S1130250808184FDFDCF80E090E00BC08FEF9FEFA5
S113026008C08EEF9FEF05C08DEF9FEF02C080E0C6
S113027090E0DF91CF911F910F91FF90EF90DF906D
S1130280BF90AF900895EF92FF920F931F93CF9377
S1130290DF93880F81602AE030E0E4E7F0E014EABD
S11302A0A1E7B0E0C3E7D0E004E80F2EF4E9FF2EA5
S11302B0F02D108390819923ECF79C91987F9830CE
S11302C029F09C91987F903109F05AC0888300836B
S11302D090819923ECF79C91987F903441F441509C
S11302E051091416150684F020E030E02BC0F0828A
S11302F0908194FDFDCF2150310909F444C095E368
S11303009A95F1F70000D5CFDB0120E030E0E4E777
S1130310F0E094EC0F2EF1E7EF2EF12CF02D03E733
S113032010E0908380818823ECF7E7018881887F3F
S1130330803561F5E80188818D932F5F3F4F241745
S113034035077CF384E880937400E4E7F0E080816F
S11303508823ECF780917100887F8835D1F48091EF
S11303607300FB01E20FF31F808384E98093740020
S1130370E4E7F0E0808184FDFDCF80E090E00BC0F5
S11303808FEF9FEF08C08EEF9FEF05C08AEF9FEFBE
S113039002C089EF9FEFDF91CF911F910F91FF90E2
S11303A0EF9008951F920F920FB60F9211240F90A1
S11303B00FBE0F901F901895109298008FEC8093A9
S11303C09900EBE9F0E0808182608083EDE9F0E060
S11303D0808186608083EAE9F0E0808180618083A7
S11303E08081886080830895EBE9F0E0908195FF37
S11303F0FDCF80939C000895EF92FF920F931F937B
S1130400CF93DF9300D000D000D0CDB7DEB720E388
S113041030E03A832983FE01339624E0DF011D9204
S11304202A95E9F7181619060CF049C0329700E02E
S113043010E00F2EFAE0EF2EF12CF02D01C089010F
S1130440B701A7D7805D8193862F972F98012F5FDF
S11304503F4F0097A1F7FE01E20FF31F11821FC067
S113046091958195910989F0FE01319600E010E0A3
S11304702AE030E0B9018DD7805D8193862F972FD4
S11304800F5F1F4F0097B1F702C000E010E0FE01BC
S1130490E00FF11F1182015011098DE2A5DF112334
S11304A09CF0CE01800F911FFC0132967F01D70191
S11304B08E917D0199DF01501109CAF705C0992376
S11304C07CF200E010E0EDCF26960FB6F894DEBF84
S11304D00FBECDBFDF91CF911F910F91FF90EF9091
S11304E008951F920F920FB60F9211240BB60F921C
S11304F04F925F926F927F928F929F92AF92BF9230
S1130500CF92DF92EF92FF922F933F934F935F939B
S11305106F937F938F939F93AF93BF93EF93FF93C7
S1130520CF93DF93CDB7DEB72897DEBFCDBF86E08C
S113053082BF80917801909179010196909379011D
S1130540809378016AE771E086E891E01CD42091F9
S113055018013091190140911A0150911B01AAE729
S1130560B1E06D917D918D919C9124D52B013C013D
S113057077FA709477F870944092740150927501F0
S113058060927601709277012091140130911501E7
S1130590409116015091170160917E0170917F0185
S11305A0809180019091810105D54B015C01B7FADE
S11305B0B094B7F8B0948092700190927101A092B7
S11305C07201B09273012091100130911101409198
S11305D01201509113016091820170918301809105
S11305E0840190918501E6D46B017C01F7FAF094C3
S11305F0F7F8F094C0926C01D0926D01E0926E0114
S1130600F0926F018091000190910101A09102018B
S1130610B091030189839A83AB83BC8320915001F9
S1130620309151014091520150915301C301B201E3
S1130630C1D429813A814B815C8148D69B01AC01AC
S1130640C301B201B7D42B013C0160934401709300
S11306504501809346019093470120914C013091CC
S11306604D0140914E0150914F01C501B401A2D4F6
S113067029813A814B815C8129D69B01AC01C5015A
S1130680B40198D44B015C01609340017093410123
S11306908093420190934301209148013091490194
S11306A040914A0150914B01C701B60183D429817D
S11306B03A814B815C810AD69B01AC01C701B6012A
S11306C079D460933C0170933D0180933E019093F3
S11306D03F01409250015092510160925201709238
S11306E0530180924C0190924D01A0924E01B09220
S11306F04F01609348017093490180934A0190939C
S11307004B0120910C0130910D0140910E0150914B
S11307100F01A6E8B1E06D917D918D919C914AD431
S11307202B013C0160935C0170935D0180935E0139
S113073090935F01209108013091090140910A01D1
S113074050910B0160918A0170918B0180918C0111
S113075090918D012FD44B015C01609358017093EB
S1130760590180935A0190935B01209104013091C7
S11307700501409106015091070160918E0170912D
S11307808F01809190019091910114D46D837E83A7
S11307908F83988760935401709355018093560119
S11307A090935701209138013091390140913A01D9
S11307B050913B01C301B201FDD329813A814B81A0
S11307C05C8184D59B01AC01C301B201F3D32B013D
S11307D03C0160932C0170932D0180932E01909322
S11307E02F0120913401309135014091360150910F
S11307F03701C501B401DED329813A814B815C8183
S113080065D59B01AC01C501B401D4D34B015C0196
S1130810609328017093290180932A0190932B01FE
S113082020913001309131014091320150913301D6
S11308306D817E818F819885BDD329813A814B81D9
S11308405C8144D59B01AC016D817E818F8198854B
S1130850B1D3609324017093250180932601909372
S11308602701409238015092390160923A01709206
S11308703B018092340190923501A0923601B092EE
S1130880370160933001709331018093320190936A
S11308903301809178019091790149970CF434C027
S11308A020E030E04AE754E4C301B2010FD54FD44D
S11308B0CB01A2DD89E098DD20E030E04AE754E492
S11308C0609128017091290180912A0190912B0156
S11308D0FDD43DD4CB0190DD89E086DD20E030E01D
S11308E04AE754E460912401709125018091260126
S11308F090912701EBD42BD4CB017EDD8AE074DD0B
S1130900109279011092780128960FB6F894DEBF00
S11309100FBECDBFDF91CF91FF91EF91BF91AF910A
S11309209F918F917F916F915F914F913F912F9103
S1130930FF90EF90DF90CF90BF90AF909F908F90FB
S11309407F906F905F904F900F900BBE0F900FBEF3
S11309500F901F9018952FEF83ED90E32150804066
S11309609040E1F700C0000027DD60E87AE186E00E
S113097090E048D12FEF83ED90E3215080409040E8
S1130980E1F700C0000013BE15BC86E082BF84BD41
S113099081E087BF02E018E06AE771E086E891E051
S11309A0F2D1CAE7D1E0288139814A815B81609123
S11309B068017091690180916A0190916B01FBD289
S11309C0609368017093690180936A0190936B014D
S11309D02C813D814E815F8160916401709165013C
S11309E08091660190916701E6D2609364017093EF
S11309F065018093660190936701288539854A854E
S1130A005B856091600170916101809162019091B8
S1130A106301D1D26093600170936101809362019C
S1130A20909363018FE39CE90197F1F700C0000004
S1130A300150110909F0B0CF20E030E240E055E464
S1130A40609168017091690180916A0190916B01D4
S1130A5016D36B017C016093180170931901809384
S1130A601A0190931B0120E030E240E055E46091CC
S1130A706401709165018091660190916701FFD2D4
S1130A8060931401709315018093160190931701DC
S1130A9020E030E240E055E4609160017091610132
S1130AA08091620190916301EAD260931001709386
S1130AB01101809312019093130120E030E04AE782
S1130AC054E4C701B60102D442D3CB0195DC89E0DA
S1130AD08BDC20E030E04AE754E46091140170912B
S1130AE015018091160190911701F0D330D3CB01F9
S1130AF083DC89E079DC20E030E04AE754E460916B
S1130B001001709111018091120190911301DED3B3
S1130B101ED3CB0171DC8AE067DC8AE065DC82E904
S1130B2091E0EBD1C2E9D1E08881998165DC89E06B
S1130B305BDC8A819B8160DC89E056DC8C819D8151
S1130B405BDC89E051DC9FEF24E38CE09150204092
S1130B508040E1F700C0000083B7876083BF85B59C
S1130B60836085BD7894809178019091790144DC0B
S1130B708AE03ADCCE01C1D1888199813DDC89E0EB
S1130B8033DC8A819B8138DC89E02EDC8C819D8179
S1130B9033DC89E029DC80917801909179012CDCA7
S1130BA08AE022DCFFCFCF93DF9300D0CDB7DEB74E
S1130BB089836A8321E030E042E050E0BE016F5F48
S1130BC07F4F88E6E2DA0F900F90DF91CF9108957E
S1130BD00F931F93CF93DF93EB018A01682F606813
S1130BE040E050E088E677DA99232CF0A801BE01B2
S1130BF088E649DB02C08FEF9FEFDF91CF911F9111
S1130C000F91089562DA60E88BE6CDDF8FE39CE90B
S1130C100197F1F700C000008FE39CE90197F1F719
S1130C2000C000008FE39CE90197F1F700C00000C9
S1130C308FE39CE90197F1F700C000008FE39CE982
S1130C400197F1F700C000008FE39CE90197F1F7E9
S1130C5000C000008FE39CE90197F1F700C0000099
S1130C608FE39CE90197F1F700C000008FE39CE952
S1130C700197F1F700C000008FE39CE90197F1F7B9
S1130C8000C0000067E088E68EDF8FE39CE90197EF
S1130C90F1F700C000008FE39CE90197F1F700C071
S1130CA000008FE39CE90197F1F700C000008FE397
S1130CB09CE90197F1F700C000008FE39CE90197DC
S1130CC0F1F700C000008FE39CE90197F1F700C041
S1130CD000008FE39CE90197F1F700C000008FE367
S1130CE09CE90197F1F700C000008FE39CE90197AC
S1130CF0F1F700C000008FE39CE90197F1F700C011
S1130D00000060E088E64FDF8FE39CE90197F1F78C
S1130D1000C0000060E28AE646DF6DE084E243DF63
S1130D208FE39CE90197F1F700C000006CE085E2D5
S1130D303ADF6BE086E237DF61E083E634DF61E8C7
S1130D4087E231DF9FEF20E782E09150204080402E
S1130D50E1F700C000006CE085E225DF6AE086E28E
S1130D6022DF60E183E61FDF61E887E21CDF9FEF9B
S1130D7020E782E0915020408040E1F700C000006D
S1130D8080E090E008958F929F92AF92BF92CF92AD
S1130D90DF92EF92FF920F931F93CF93DF93CDB720
S1130DA0DEB76A970FB6F894DEBF0FBECDBF7C01E5
S1130DB08B014EE050E0BE016F5F7F4F8BE308DF95
S1130DC099230CF485C08A818F878981888B8A85D1
S1130DD08D8B89858E8B8C81898B8B818A8B8C857D
S1130DE08F8B8B85888F8E818B8B8D818C8B8E8561
S1130DF0898F8D858A8F8090200190902101A09009
S1130E002201B09023016F857889072E000C880B8E
S1130E10990BD0D1A501940159D2F7016083718354
S1130E208283938369897A89072E000C880B990B36
S1130E30C1D1A50194014AD2F701648375838683E5
S1130E4097836B897C89072E000C880B990BB2D190
S1130E50A50194013BD2F70160877187828793874C
S1130E60C0901C01D0901D01E0901E01F0901F0164
S1130E706D897E89072E000C880B990B9BD1A701E5
S1130E80960124D2F80160837183828393836F89EE
S1130E90788D072E000C880B990B8CD1A701960135
S1130EA015D2F8016483758386839783698D7A8D5F
S1130EB0072E000C880B990B7DD1A701960106D251
S1130EC0F801608771878287938780E090E002C091
S1130ED08FEF9FEF6A960FB6F894DEBF0FBECDBFBB
S1130EE0DF91CF911F910F91FF90EF90DF90CF9002
S1130EF0BF90AF909F908F9008950F931F93CF93BF
S1130F00DF9300D000D000D0CDB7DEB7082F192F63
S1130F106CE085E248DE6AE086E245DE61E183E674
S1130F2042DE61E887E23FDE2FEF80E792E0215066
S1130F3080409040E1F700C000006CE885E233DEB9
S1130F4063E086E230DE67E887E22DDE2FEF80E79C
S1130F5092E0215080409040E1F700C0000046E05C
S1130F6050E0BE016F5F7F4F89E432DE9923ACF01D
S1130F70FE013196A02FB12F9E01295F3F4F808142
S1130F808C93818111968C93119732961296E21765
S1130F90F307A9F780E090E002C08FEF9FEF269659
S1130FA00FB6F894DEBF0FBECDBFDF91CF911F9176
S1130FB00F9108955058BB27AA270ED04DC13ED19A
S1130FC030F043D120F031F49F3F11F41EF433C1CB
S1130FD00EF4E095E7FB29C1E92F4FD180F3BA174E
S1130FE0620773078407950718F071F49EF567C1CB
S1130FF00EF4E0950B2EBA2FA02D0B01B901900130
S11310000C01CA01A0011124FF27591B99F0593F73
S113101050F4503E68F11A16F040A22F232F342FBB
S11310204427585FF3CF469537952795A795F04009
S11310305395C9F77EF41F16BA0B620B730B840B1E
S1131040BAF09150A1F0FF0FBB1F661F771F881FD6
S1131050C2F70EC0BA0F621F731F841F48F487952E
S113106077956795B795F7959E3F08F0B3CF93951D
S1131070880F08F09927EE0F9795879508950CD05F
S1131080EBC0E3D040F0DAD030F021F45F3F19F048
S1131090CCC0511115C1CFC0F0D098F39923C9F336
S11310A05523B1F3951B550BBB27AA27621773076A
S11310B0840738F09F5F5F4F220F331F441FAA1F1E
S11310C0A9F333D00E2E3AF0E0E830D091505040DE
S11310D0E695001CCAF729D0FE2F27D0660F771F8C
S11310E0881FBB1F261737074807AB07B0E809F06E
S11310F0BB0B802DBF01FF2793585F4F2AF09E3F03
S1131100510568F092C0DCC05F3FECF3983EDCF31D
S1131110869577956795B795F7959F5FC9F7880F7B
S1131120911D9695879597F90895E1E0660F771FCD
S1131130881FBB1F621773078407BA0720F0621B5E
S1131140730B840BBA0BEE1F88F7E095089504D057
S11311506894B111B5C0089598D088F09F5790F065
S1131160B92F9927B751A0F0D1F0660F771F881FC8
S1131170991F1AF0BA95C9F712C0B13081F09FD007
S1131180B1E008959CC0672F782F8827B85F39F0A5
S1131190B93FCCF3869577956795B395D9F73EF427
S11311A090958095709561957F4F8F4F9F4F0895CF
S11311B0E89409C097FB3EF49095809570956195ED
S11311C07F4F8F4F9F4F9923A9F0F92F96E9BB27A3
S11311D09395F695879577956795B795F111F8CF1F
S11311E0FAF4BB0F11F460FF1BC06F5F7F4F8F4F8A
S11311F09F4F16C0882311F096E911C0772321F080
S11312009EE8872F762F05C0662371F096E8862F17
S113121070E060E02AF09A95660F771F881FDAF76E
S1131220880F9695879597F9089597F99F6780E8B1
S113123070E060E008959FEF80EC089500240A9424
S11312401616170618060906089500240A9412169D
S11312501306140605060895092E0394000C11F4D0
S1131260882352F0BB0F40F4BF2B11F460FF04C07D
S11312706F5F7F4F8F4F9F4F089557FD9058440FD6
S1131280551F59F05F3F71F04795880F97FB991FE1
S113129061F09F3F79F0879508951216130614069E
S11312A0551FF2CF4695F1DF08C01616170618062B
S11312B0991FF1CF86957105610508940895E89406
S11312C0BB2766277727CB0197F908950BD0C4CFA6
S11312D0B5DF28F0BADF18F0952309F0A6CFABCF1D
S11312E01124EECFCADFA0F3959FD1F3950F50E000
S11312F0551F629FF001729FBB27F00DB11D639FC4
S1131300AA27F00DB11DAA1F649F6627B00DA11D69
S1131310661F829F2227B00DA11D621F739FB00D0F
S1131320A11D621F839FA00D611D221F749F33277F
S1131330A00D611D231F849F600D211D822F762F18
S11313406A2F11249F5750408AF0E1F088234AF015
S1131350EE0FFF1FBB1F661F771F881F9150504061
S1131360A9F79E3F510570F060CFAACF5F3FECF321
S1131370983EDCF3869577956795B795F795E7954D
S11313809F5FC1F7FE2B880F911D9695879597F95E
S1131390089597FB072E16F4009406D077FD08D025
S11313A00BD007FC05D03EF4909581959F4F08958E
S11313B0709561957F4F0895AA1BBB1B51E107C02F
S11313C0AA1FBB1FA617B70710F0A61BB70B881FD1
S11313D0991F5A95A9F780959095BC01CD01089560
S10713E0F894FFCFAB
S11313E4FA7E2A3F10E9EFBF3AAF193F4F3B2C3F37
S11313F46F12033C250681BDCDCCCC3CFDB30B3927
S1071404CDCC1C3AF1
S9030000FC
