S01900003233303732365F6D61696E6672616D65322E7372656396
S113000045C0000061C000005FC000005DC000008A
S11300105BC0000059C0000057C0000055C000007C
S113002053C0000051C000004FC000004DC000008C
S11300304BC0000049C0000047C0000045C000009C
S113004048C2000041C000003FC000003DC00000A5
S11300503BC0000039C0000037C0000035C00000BC
S113006033C0000031C000002FC000002DC00000CC
S11300702BC0000029C0000027C0000025C00000DC
S113008023C0000021C000001FC0000011241FBEB7
S1130090CFEFD0E1DEBFCDBF11E0A0E0B1E0EAE0F8
S11300A0F2E200E00BBF02C007900D92A033B1074B
S11300B0D9F721E0A0E3B1E001C01D92A03EB20750
S11300C0E1F7BAD40C9403119BCF109271008CE029
S11300D08093700008950F931F93CF93DF938A0149
S11300E0880F2AE030E0E4E7F0E054EAA1E7B0E06A
S11300F0C3E7D0E044E874E9508390819923ECF796
S11301009C91987F983089F58883408390819923C6
S1130110ECF79C91987F983161F07083908194FD05
S1130120FDCF2150310921F195E39A95F1F70000B3
S1130130E3CF6093730084E880937400E4E7F0E015
S113014080818823ECF780917100887F883299F44C
S1130150012BA1F084E980937400E4E7F0E080814E
S113016084FDFDCF80E090E00BC08FEF9FEF08C0CF
S11301708EEF9FEF05C08DEF9FEF02C080E090E00F
S1130180DF91CF911F910F910895AF92BF92DF92AB
S1130190EF92FF920F931F93CF93DF93E82EEE0C11
S11301A0AAE0B0E0E4E7F0E084EA0F2EF1E7AF2E36
S11301B0B12CF02D03E710E00F2EF4E8FF2EF02D04
S11301C00F2EF4E9DF2EF02D808390819923ECF734
S11301D0E5019881987F983009F040C0E801E882F1
S11301E0F08290819923ECF7E5019881987F98310A
S11301F021F41416150664F024C0D082908194FD75
S1130200FDCF119771F1D5E3DA95F1F70000DCCF5A
S1130210DB01460F571F63E770E0E4E7F0E094E882
S113022001E710E08D91EB0188839083808188231E
S1130230ECF7E8018881887F8832B1F4A417B50708
S113024089F7232BA1F084E980937400E4E7F0E0BC
S1130250808184FDFDCF80E090E00BC08FEF9FEFA5
S113026008C08EEF9FEF05C08DEF9FEF02C080E0C6
S113027090E0DF91CF911F910F91FF90EF90DF906D
S1130280BF90AF900895EF92FF920F931F93CF9377
S1130290DF93880F81602AE030E0E4E7F0E014EABD
S11302A0A1E7B0E0C3E7D0E004E80F2EF4E9FF2EA5
S11302B0F02D108390819923ECF79C91987F9830CE
S11302C029F09C91987F903109F05AC0888300836B
S11302D090819923ECF79C91987F903441F441509C
S11302E051091416150684F020E030E02BC0F0828A
S11302F0908194FDFDCF2150310909F444C095E368
S11303009A95F1F70000D5CFDB0120E030E0E4E777
S1130310F0E094EC0F2EF1E7EF2EF12CF02D03E733
S113032010E0908380818823ECF7E7018881887F3F
S1130330803561F5E80188818D932F5F3F4F241745
S113034035077CF384E880937400E4E7F0E080816F
S11303508823ECF780917100887F8835D1F48091EF
S11303607300FB01E20FF31F808384E98093740020
S1130370E4E7F0E0808184FDFDCF80E090E00BC0F5
S11303808FEF9FEF08C08EEF9FEF05C08AEF9FEFBE
S113039002C089EF9FEFDF91CF911F910F91FF90E2
S11303A0EF9008951092980080E180939900EBE912
S11303B0F0E0808182608083EDE9F0E080818660F6
S11303C08083EAE9F0E080818061808380818860B5
S11303D080830895EBE9F0E0908195FFFDCF809351
S11303E09C000895EF92FF920F931F93CF93DF9396
S11303F000D000D000D0CDB7DEB720E330E03A83A0
S11304002983FE01339624E0DF011D922A95E9F742
S1130410181619060CF04BC0329700E010E00F2EAE
S1130420FAE0EF2EF12CF02D01C08901B7010E94F2
S1130430D810805D8193862F972F98012F5F3F4FAF
S1130440009799F7FE01E20FF31F118220C09195E6
S11304508195910991F0FE01319600E010E02AE0C7
S113046030E0B9010E94D810805D8193862F972FC8
S11304700F5F1F4F0097A9F702C000E010E0FE01D4
S1130480E00FF11F1182015011098DE2A3DF112346
S11304909CF0CE01800F911FFC0132967F01D701A1
S11304A08E917D0197DF01501109CAF705C0992388
S11304B074F200E010E0EDCF26960FB6F894DEBF9C
S11304C00FBECDBFDF91CF911F910F91FF90EF90A1
S11304D008951F920F920FB60F9211240BB60F922C
S11304E04F925F926F927F928F929F92AF92BF9240
S11304F0CF92DF92EF92FF920F931F932F933F932C
S11305004F935F936F937F938F939F93AF93BF9317
S1130510EF93FF93CF93DF93CDB7DEB76497DEBF3E
S1130520CDBF86E082BF80918401909185010196C0
S1130530909385018093840166E971E082EB91E0F8
S1130540BFD420912401309125014091260150917E
S11305502701A6E9B1E06D917D918D919C910E9456
S1130560920E2B013C0177FA709477F870944092C4
S113057080015092810160928201709283012091E6
S11305802001309121014091220150912301609179
S11305909A0170919B0180919C0190919D010E9410
S11305A0920E4B015C01B7FAB094B7F8B094809204
S11305B07C0190927D01A0927E01B0927F012091F6
S11305C01C0130911D0140911E0150911F01609149
S11305D09E0170919F018091A0019091A1010E94C0
S11305E0920E6B017C01F7FAF094F7F8F094C09244
S11305F07801D0927901E0927A01F0927B01209106
S11306000C0130910D0140910E0150910F0129838D
S11306103A834B835C8320915C0130915D0140916E
S11306205E0150915F01C301B2010E94920E2981C3
S11306303A814B815C810E941E109B01AC01C30175
S1130640B2010E94920E2B013C0160935001709301
S1130650510180935201909353012091580130919C
S1130660590140915A0150915B01C501B4010E94A6
S1130670920E29813A814B815C810E941E109B015C
S1130680AC01C501B4010E94920E6D877E878F87ED
S1130690988B60934C0170934D0180934E0190931D
S11306A04F012091540130915501409156015091D0
S11306B05701C701B6010E94920E29813A814B81EC
S11306C05C810E941E109B01AC01C701B6010E940F
S11306D0920E5B016C016093480170934901809311
S11306E04A0190934B0140925C0150925D016092EB
S11306F05E0170925F018D859E85AF85B889809378
S1130700580190935901A0935A01B0935B01A092B0
S11307105401B0925501C0925601D09257012091D4
S113072018013091190140911A0150911B01A2EB5B
S1130730B1E06D917D918D919C910E94920E6D839B
S11307407E838F8398876093680170936901809397
S11307506A0190936B01209114013091150140912D
S11307601601509117016091B6017091B701809103
S1130770B8019091B9010E94920E69877A878B879C
S11307809C876093640170936501809366019093E4
S11307906701209110013091110140911201509193
S11307A013016091BA017091BB018091BC019091D9
S11307B0BD010E94920E698B7A8B8B8B9C8B60930C
S11307C060017093610180936201909363012091B1
S11307D044013091450140914601509147016D819A
S11307E07E818F8198850E94920E29813A814B8166
S11307F05C810E941E109B01AC016D817E818F8102
S113080098850E94920E6D837E838F839887609370
S113081038017093390180933A0190933B01209100
S11308204001309141014091420150914301698559
S11308307A858B859C850E94920E29813A814B8111
S11308405C810E941E109B01AC0169857A858B85B1
S11308509C850E94920E69877A878B879C87609318
S113086034017093350180933601909337012091C0
S11308703C0130913D0140913E0150913F01698915
S11308807A898B899C890E94920E29813A814B81B5
S11308905C810E941E109B01AC0169897A898B8955
S11308A09C890E94920E6093300170933101809371
S11308B03201909333012D813E814F8158852093DD
S11308C044013093450140934601509347012985E3
S11308D03A854B855C8520934001309341014093D8
S11308E042015093430160933C0170933D01809316
S11308F03E0190933F010F2EFEEB8F2EF1E09F2ED1
S1130900F02DED84FE840F851889A301920160E027
S113091070E0CB0113D442EA51E066E871E0C4010F
S113092066D522EA31E04FE652E163E07CE3C90197
S11309300E941D0E46E851E062EA71E0CA010E947D
S1130940B00D66E871E0CB01DDD44EEC51E060E01F
S113095071E086E891E0A8D620E030E04AE754E46C
S1130960AEECB1E06D917D918D919C910E941E1031
S11309700E94640FCB0136DD89E02CDD20E030E0FD
S11309804AE754E46091D2017091D3018091D4017B
S11309909091D5010E941E100E94640FCB0122DDAC
S11309A089E018DD20E030E04AE754E46091D601A4
S11309B07091D7018091D8019091D9010E941E10A5
S11309C00E94640FCB010EDD8AE004DD8AED91E024
S11309D07FD38091840190918501499724F01092EE
S11309E085011092840164960FB6F894DEBF0FBEA1
S11309F0CDBFDF91CF91FF91EF91BF91AF919F91C7
S1130A008F917F916F915F914F913F912F911F91A2
S1130A100F91FF90EF90DF90CF90BF90AF909F9099
S1130A208F907F906F905F904F900F900BBE0F90C0
S1130A300FBE0F901F9018952FEF83ED90E3215078
S1130A4080409040E1F700C00000ACDC60E87AE14F
S1130A5086E090E04DD12FEF83ED90E3215080406C
S1130A609040E1F700C0000013BE86E082BF81E041
S1130A7087BF83B7876083BF02E018E066E971E04F
S1130A8082EB91E01DD2C6E9D1E0288139814A8107
S1130A905B816091740170917501809176019091F0
S1130AA077010E94930E6093740170937501809393
S1130AB07601909377012C813D814E815F81609115
S1130AC070017091710180917201909173010E9483
S1130AD0930E6093700170937101809372019093EF
S1130AE07301288539854A855B8560916C01709115
S1130AF06D0180916E0190916F010E94930E60933D
S1130B006C0170936D0180936E0190936F018FE37C
S1130B109CE90197F1F700C000000150110909F0A8
S1130B20ADCF20E030E240E055E460917401709173
S1130B30750180917601909177010E94F70E6B0107
S1130B407C01609324017093250180932601909386
S1130B50270120E030E240E055E46091700170919B
S1130B60710180917201909173010E94F70E60935C
S1130B70200170932101809322019093230120E0AE
S1130B8030E240E055E460916C0170916D01809118
S1130B906E0190916F010E94F70E60931C01709397
S1130BA01D0180931E0190931F0120E030E04AE76D
S1130BB054E4C701B6010E941E100E945F0FCB01CE
S1130BC011DC89E007DC20E030E04AE754E460917E
S1130BD020017091210180912201909123010E94B2
S1130BE01E100E945F0FCB01FDDB89E0F3DB20E0E8
S1130BF030E04AE754E460911C0170911D0180913A
S1130C001E0190911F010E941E100E945F0FCB01D4
S1130C10E9DB8AE0DFDB8AE0DDDBBE0182EB91E029
S1130C204FD18AED91E00CD2CAEDD1E0888199814F
S1130C30D9DB89E0CFDB8A819B81D4DB89E0CADB05
S1130C408C819D81CFDB8AE0C5DB8FE39CE9019732
S1130C50F1F700C0000086E891E0A0D2789480917A
S1130C60840190918501BEDB8AE0B4DB9FEF27E825
S1130C7083E1915020408040E1F700C000009FEFE5
S1130C8021EE84E0915020408040E1F700C0000054
S1130C90F6CFCF93DF9300D0CDB7DEB789836A83D5
S1130CA021E030E042E050E0BE016F5F7F4F88E614
S1130CB06CDA0F900F90DF91CF9108950F931F93EB
S1130CC0CF93DF93EB018A01682F606840E050E026
S1130CD088E601DA99232CF0A801BE0188E6D3DA6C
S1130CE002C08FEF9FEFDF91CF911F910F91089575
S1130CF0ECD960E88BE6CDDF8FE39CE90197F1F74F
S1130D0000C000008FE39CE90197F1F700C00000E8
S1130D108FE39CE90197F1F700C000008FE39CE9A1
S1130D200197F1F700C000008FE39CE90197F1F708
S1130D3000C000008FE39CE90197F1F700C00000B8
S1130D408FE39CE90197F1F700C000008FE39CE971
S1130D500197F1F700C000008FE39CE90197F1F7D8
S1130D6000C000008FE39CE90197F1F700C0000088
S1130D7067E088E68EDF8FE39CE90197F1F700C016
S1130D8000008FE39CE90197F1F700C000008FE3B6
S1130D909CE90197F1F700C000008FE39CE90197FB
S1130DA0F1F700C000008FE39CE90197F1F700C060
S1130DB000008FE39CE90197F1F700C000008FE386
S1130DC09CE90197F1F700C000008FE39CE90197CB
S1130DD0F1F700C000008FE39CE90197F1F700C030
S1130DE000008FE39CE90197F1F700C0000060E088
S1130DF088E64FDF8FE39CE90197F1F700C000001C
S1130E0060E28AE646DF6DE084E243DF8FE39CE93B
S1130E100197F1F700C000006CE085E23ADF6BE077
S1130E2086E237DF61E083E634DF61E887E231DFC1
S1130E309FEF20E782E0915020408040E1F700C01E
S1130E4000006CE085E225DF6AE086E222DF60E1F3
S1130E5083E61FDF61E887E21CDF9FEF20E782E083
S1130E60915020408040E1F700C000006CE085E232
S1130E7010DF6AE086E20DDF66E183E60ADF61E8FF
S1130E8087E207DF9FEF20E782E091502040804017
S1130E90E1F700C000006CE885E2FBDE63E086E277
S1130EA0F8DE67E887E2F5DE9FEF20E782E0915005
S1130EB020408040E1F700C0000080E090E0089509
S1130EC08F929F92AF92BF92CF92DF92EF92FF9256
S1130ED00F931F93CF93DF93CDB7DEB76A970FB607
S1130EE0F894DEBF0FBECDBF7C018B014EE050E015
S1130EF0BE016F5F7F4F8BE3E1DE99230CF48BC05F
S1130F008A818F878981888B8A858D8B89858E8B51
S1130F108C81898B8B818A8B8C858F8B8B85888F39
S1130F208E818B8B8D818C8B8E85898F8D858A8F1D
S1130F3080902C0190902D01A0902E01B0902F0153
S1130F406F857889072E000C880B990BEBD7A501C8
S1130F5094010E941E10F70160837183828393833E
S1130F6069897A89072E000C880B990BDBD7A501B8
S1130F7094010E941E10F70164837583868397830E
S1130F806B897C89072E000C880B990BCBD7A501A4
S1130F9094010E941E10F7016087718782879387EE
S1130FA0C0902801D0902901E0902A01F0902B01F3
S1130FB06D897E89072E000C880B990BB3D7A70186
S1130FC096010E941E10F8016083718382839383CB
S1130FD06F89788D072E000C880B990BA3D7A70176
S1130FE096010E941E10F80164837583868397839B
S1130FF0698D7A8D072E000C880B990B93D7A70166
S113100096010E941E10F80160877187828793877A
S113101080E090E002C08FEF9FEF6A960FB6F894DD
S1131020DEBF0FBECDBFDF91CF911F910F91FF9017
S1131030EF90DF90CF90BF90AF909F908F900895E6
S11310400F931F93CF93DF9300D000D000D0CDB780
S1131050DEB7082F192F6CE885E21BDE63E086E219
S113106018DE67E887E215DE2FEF80E792E0215073
S113107080409040E1F700C0000046E050E0BE012F
S11310806F5F7F4F89E41ADE9923ACF0FE0131963D
S1131090A02FB12F9E01295F3F4F80818C938181C6
S11310A011968C93119732961296E217F307A9F7CB
S11310B080E090E002C08FEF9FEF26960FB6F89481
S11310C0DEBF0FBECDBFDF91CF911F910F91089569
S11310D00F931F93CF93DF9300D000D000D0CDB7F0
S11310E0DEB7082F192F46E050E0BE016F5F7F4F37
S11310F089E4E4DD9923ACF0FE013196A02FB12FF1
S11311009E01295F3F4F80818C93818111968C933E
S1131110119732961296E217F307A9F780E090E050
S113112002C08FEF9FEF26960FB6F894DEBF0FBE76
S1131130CDBFDF91CF911F910F9108958F929F9210
S1131140AF92BF92CF92DF92EF92FF920F931F93D1
S1131150CF93DF93CDB7DEB7F401309711F40E943B
S1131160FF10608371838283938324833583468352
S11311705783E086F18602871387A486B586C686E0
S1131180D786DF91CF911F910F91FF90EF90DF9061
S1131190CF90BF90AF909F908F900895FC01892BC2
S11311A011F40E94FF1080E090E0A0E8BFE3808388
S11311B09183A283B38314821582168217821086C8
S11311C01186128613861486158616861786089548
S11311D04F925F926F927F928F929F92AF92BF9243
S11311E0CF92DF92EF92FF92CF93DF93CDB7DEB72A
S11311F028970FB6F894DEBF0FBECDBFFC01892B34
S113120009F4FDD780809180A280B380C480D5800A
S1131210E680F78080859185A285B3858D839E8342
S1131220AF83B8874484558466847784A501940188
S1131230C501B40103D769837A838B839C83A70197
S11312409601C701B601FAD69B01AC0169817A8186
S11312508B819C8168D569837A838B839C832D8160
S11312603E814F815885CA01B901E8D69B01AC0182
S113127069817A818B819C8156D569837A838B833A
S11312809C83A5019401C501B401D8D64B015C012E
S1131290A7019601C701B601D1D69B01AC01C501D6
S11312A0B40141D56B017C012D813E814F8158856C
S11312B0CA01B901C3D69B01AC01C701B60133D53C
S11312C06B017C01A3019201C301B201B7D69B015A
S11312D0AC01C701B60127D518D728960FB6F894E4
S11312E0DEBF0FBECDBFDF91CF91FF90EF90DF90B7
S11312F0CF90BF90AF909F908F907F906F905F90B2
S11313004F9008954F925F926F927F928F929F9227
S1131310AF92BF92CF92DF92EF92FF920F931F93FF
S1131320CF93DF9300D000D000D0CDB7DEB78C01CF
S11313307E836D83672B09F462D74ADF69837A83DE
S11313408B839C839B01AC01F8016485758586853C
S113135097854DD56B017C0129813A814B815C8154
S1131360F801608571858285938541D54B015C01C7
S113137029813A814B815C81F80164817581868180
S1131380978135D52B013C0129813A814B815C81C0
S1131390F801608171818281938129D5ED81FE817B
S11313A060837183828393834482558266827782C9
S11313B080869186A286B386C486D586E686F7861D
S11313C026960FB6F894DEBF0FBECDBFDF91CF9146
S11313D01F910F91FF90EF90DF90CF90BF90AF904F
S11313E09F908F907F906F905F904F9008954F9251
S11313F05F926F927F928F929F92AF92BF92CF92A1
S1131400DF92EF92FF92CF93DF93CDB7DEB76A9767
S11314100FB6F894DEBF0FBECDBFDC01FB015A8FBF
S1131420498F452B09F4EBD6CD90DD90ED90FC90DF
S11314301397208131814281538129833A834B83DD
S11314405C8314962D913D914D915C9117972D835A
S11314503E834F835887248135814681578129876C
S11314603A874B875C8718962D913D914D915C91FD
S11314701B972D873E874F87588B20853185428562
S11314805385298B3A8B4B8B5C8B1C962D913D910C
S11314904D915C911F972D8B3E8B4F8B588F84847D
S11314A09584A684B78429813A814B815C81C701E4
S11314B0B601C4D52B013C0129853A854B855C8551
S11314C06D817E818F819885B9D59B01AC01C30163
S11314D0B20128D42B013C0129893A894B895C89C2
S11314E06D857E858F859889A9D59B01AC01C30143
S11314F0B20118D42B013C01A50194016D897E89A8
S11315008F89988D9BD59B01AC01C301B2010AD48C
S1131510E98DFA8D60837183828393832D813E816B
S11315204F81588569817A818B819C8187D52B0174
S11315303C0129853A854B855C85C701B6017ED57A
S11315409B01AC01C301B201EED32B013C01A50107
S113155094016D857E858F85988970D59B01AC013A
S1131560C301B201E0D32B013C012D893E894F898F
S1131570588D69897A898B899C8960D59B01AC01D6
S1131580C301B201CFD3E98DFA8D64837583868359
S1131590978329893A894B895C89C701B6014ED55D
S11315A02B013C01A50194016D817E818F81988579
S11315B045D59B01AC01C301B201B4D32B013C015D
S11315C02D853E854F85588969817A818B819C81DF
S11315D035D59B01AC01C301B201A5D32B013C015C
S11315E02D893E894F89588D69857A858B859C859F
S11315F025D59B01AC01C301B20195D3E98DFA8DC8
S11316006087718782879387A5019401C701B6011A
S113161015D56B017C0129893A894B895C896D81D7
S11316207E818F8198850AD59B01AC01C701B601E3
S11316307AD36B017C012D853E854F855889698558
S11316407A858B859C85FAD49B01AC01C701B601D0
S113165069D36B017C012D893E894F89588D69813D
S11316607A818B819C81EAD49B01AC01C701B601CC
S11316705AD3E98DFA8D64877587868797876A962A
S11316800FB6F894DEBF0FBECDBFDF91CF91FF90B0
S1131690EF90DF90CF90BF90AF909F908F907F900E
S11316A06F905F904F9008952F923F924F925F9268
S11316B06F927F928F929F92AF92BF92CF92DF925E
S11316C0EF92FF920F931F93CF93DF93CDB7DEB7C3
S11316D0E0970FB6F894DEBF0FBECDBF9A8389831F
S11316E08B011A01452B09F48AD5A981BA81CD90C1
S11316F0DD90ED90FC90A7019601C701B6019ED440
S1131700698B7A8B8B8B9C8BA981BA8114968D9172
S11317109D910D90BC91A02D8D879E87AF87B88B2E
S11317209C01AD01BC01CD0189D46D8B7E8B8F8B67
S1131730988FE981FA8180849184A284B384A5017D
S11317409401C501B4017AD4698F7A8F8B8F9C8FF1
S1131750A981BA811C964D905D906D907C901F97E5
S1131760A3019201C301B20169D46D8F7E8F8F8F63
S113177098A3D8018D919D910D90BC91A02D898342
S11317809A83AB83BC83A5019401C701B60156D4E7
S11317909B01AC01C8D269A37AA38BA39CA3D801F3
S11317A018968D919D910D90BC91A02D8D839E8353
S11317B0AF83B887A3019201C701B6013FD49B014F
S11317C0AC01B1D26DA37EA38FA398A7D8011496C0
S11317D08D919D910D90BC91A02D89879A87AB879F
S11317E0BC87A50194016D857E858F85988926D453
S11317F09B01AC0198D269A77AA78BA79CA7A301E8
S113180092016D857E858F85988918D49B01AC01E2
S11318108AD26DA77EA78FA798ABA3019201C501B9
S1131820B4010CD49B01AC017ED24B015C012D852B
S11318303E854F855889C701B60100D49B01AC0190
S113184072D22B013C0129813A814B815C816989E7
S11318507A898B899C89F2D36B017C012D813E812D
S11318604F81588569A17AA18BA19CA1E7D39B01E3
S1131870AC01C701B60157D26B017C0129853A85B9
S11318804B855C856DA17EA18FA198A5D7D39B01C3
S1131890AC01C701B60146D26B017C0129813A81B2
S11318A04B815C816D897E898F89988DC7D39B011B
S11318B0AC01C701B60137D26B017C0129A53AA559
S11318C04BA55CA569857A858B859C85B7D39B01DF
S11318D0AC01C701B60127D26B017C012DA53EA541
S11318E04FA558A96D817E818F819885A7D39B01CF
S11318F0AC01C701B60117D26B017C0129813A8181
S11319004B815C816D8D7E8D8F8D98A197D39B01CA
S1131910AC01C701B60106D26B017C0129813A8171
S11319204B815C81698D7A8D8B8D9C8D87D39B01D6
S1131930AC01C701B601F6D1F101608371838283E2
S1131940938329A53AA54BA55CA569817A818B81EE
S11319509C8174D36B017C0129853A854B855C8518
S1131960698D7A8D8B8D9C8D69D39B01AC01C701E8
S1131970B601D9D16B017C01A50194016D817E81F1
S11319808F8198855BD39B01AC01C701B601CBD194
S11319906B017C012DA13EA14FA158A569817A81DB
S11319A08B819C814BD39B01AC01C701B601BBD198
S11319B06B017C0129853A854B855C856D8D7E8D17
S11319C08F8D98A13BD39B01AC01C701B601AAD16D
S11319D06B017C0129853A854B855C8569897A8907
S11319E08B899C892BD39B01AC01C701B6019BD188
S11319F06B017C01A30192016D817E818F819885A9
S1131A001DD39B01AC01C701B6018CD16B017C01D4
S1131A1029853A854B855C856D897E898F89988D6A
S1131A200DD39B01AC01C701B6017CD1D101149641
S1131A306D937D938D939C9317972DA53EA54FA5EC
S1131A4058A969817A818B819C81F8D26B017C01D0
S1131A50A501940169857A858B859C85EFD29B01CC
S1131A60AC01C701B6015FD16B017C012D813E81C0
S1131A704F8158856D8D7E8D8F8D98A1DFD29B010E
S1131A80AC01C701B6014FD16B017C0129A13AA178
S1131A904BA15CA169817A818B819C81CFD29B010E
S1131AA0AC01C701B6013ED16B017C012D813E81A1
S1131AB04F815885698D7A8D8B8D9C8DBFD29B010A
S1131AC0AC01C701B6012ED16B017C01A3019201C7
S1131AD069857A858B859C85B1D29B01AC01C70150
S1131AE0B60121D16B017C012D813E814F81588546
S1131AF06D897E898F89988DA1D29B01AC01C70124
S1131B00B60110D16B017C012D813E814F81588536
S1131B1069897A898B899C8991D29B01AC01C7011F
S1131B20B60101D1F1016087718782879387E096BE
S1131B300FB6F894DEBF0FBECDBFDF91CF911F91DA
S1131B400F91FF90EF90DF90CF90BF90AF909F9058
S1131B508F907F906F905F904F903F902F9008955B
S1131B602F923F924F925F926F927F928F929F92A9
S1131B70AF92BF92CF92DF92EF92FF920F931F9397
S1131B80CF93DF931C018B01EA01209709F437D32B
S1131B90FB012481358146815781FC016481758173
S1131BA086819781C0D02B013C01F80120853185C5
S1131BB042855385F1016085718582859385B3D013
S1131BC04B015C01F8012485358546855785F10173
S1131BD06485758586859785A6D06B017C01F8019F
S1131BE02081318142815381F1016081718182813F
S1131BF0938199D0688379838A839B834C825D82A5
S1131C006E827F8288869986AA86BB86CC86DD868C
S1131C10EE86FF86DF91CF911F910F91FF90EF9099
S1131C20DF90CF90BF90AF909F908F907F906F90F8
S1131C305F904F903F902F9008954F925F926F92D4
S1131C407F928F929F92AF92BF92CF92DF92EF9248
S1131C50FF920F931F93CF93DF9300D000D000D057
S1131C60CDB7DEB79E838D8349835A836B837C8390
S1131C708901FC01248135814681578169817A81FA
S1131C808B819C81DBD12B013C01ED81FE81208580
S1131C9031854285538569817A818B819C81CED13E
S1131CA04B015C01ED81FE81248535854685578590
S1131CB069817A818B819C81C1D16B017C012981ED
S1131CC03A814B815C81ED81FE81608171818281E9
S1131CD09381B4D1F80160837183828393834482B6
S1131CE055826682778280869186A286B386C48670
S1131CF0D586E686F78626960FB6F894DEBF0FBE25
S1131D00CDBFDF91CF911F910F91FF90EF90DF90A6
S1131D10CF90BF90AF909F908F907F906F905F9087
S1131D204F9008955058BB27AA270ED04DC13ED1DD
S1131D3030F043D120F031F49F3F11F41EF433C14D
S1131D400EF4E095E7FB29C1E92F4FD180F3BA17D0
S1131D50620773078407950718F071F49EF567C14D
S1131D600EF4E0950B2EBA2FA02D0B01B9019001B2
S1131D700C01CA01A0011124FF27591B99F0593FF6
S1131D8050F4503E68F11A16F040A22F232F342F3E
S1131D904427585FF3CF469537952795A795F0408C
S1131DA05395C9F77EF41F16BA0B620B730B840BA1
S1131DB0BAF09150A1F0FF0FBB1F661F771F881F59
S1131DC0C2F70EC0BA0F621F731F841F48F48795B1
S1131DD077956795B795F7959E3F08F0B3CF9395A0
S1131DE0880F08F09927EE0F9795879508950CD0E2
S1131DF0EBC0E3D040F0DAD030F021F45F3F19F0CB
S1131E00CCC0511115C1CFC0F0D098F39923C9F3B8
S1131E105523B1F3951B550BBB27AA2762177307EC
S1131E20840738F09F5F5F4F220F331F441FAA1FA0
S1131E30A9F333D00E2E3AF0E0E830D09150504060
S1131E40E695001CCAF729D0FE2F27D0660F771F0E
S1131E50881FBB1F261737074807AB07B0E809F0F0
S1131E60BB0B802DBF01FF2793585F4F2AF09E3F85
S1131E70510568F092C0DCC05F3FECF3983EDCF3A0
S1131E80869577956795B795F7959F5FC9F7880FFE
S1131E90911D9695879597F90895E1E0660F771F50
S1131EA0881FBB1F621773078407BA0720F0621BE1
S1131EB0730B840BBA0BEE1F88F7E095089504D0DA
S1131EC06894B111B5C0089598D088F09F5790F0E8
S1131ED0B92F9927B751A0F0D1F0660F771F881F4B
S1131EE0991F1AF0BA95C9F712C0B13081F09FD08A
S1131EF0B1E008959CC0672F782F8827B85F39F028
S1131F00B93FCCF3869577956795B395D9F73EF4A9
S1131F1090958095709561957F4F8F4F9F4F089551
S1131F20E89409C097FB3EF490958095709561956F
S1131F307F4F8F4F9F4F9923A9F0F92F96E9BB2725
S1131F409395F695879577956795B795F111F8CFA1
S1131F50FAF4BB0F11F460FF1BC06F5F7F4F8F4F0C
S1131F609F4F16C0882311F096E911C0772321F002
S1131F709EE8872F762F05C0662371F096E8862F9A
S1131F8070E060E02AF09A95660F771F881FDAF7F1
S1131F90880F9695879597F9089597F99F6780E834
S1131FA070E060E008959FEF80EC089500240A94A7
S1131FB01616170618060906089500240A94121620
S1131FC01306140605060895092E0394000C11F453
S1131FD0882352F0BB0F40F4BF2B11F460FF04C000
S1131FE06F5F7F4F8F4F9F4F089557FD9058440F59
S1131FF0551F59F05F3F71F04795880F97FB991F64
S113200061F09F3F79F08795089512161306140620
S1132010551FF2CF4695F1DF08C0161617061806AD
S1132020991FF1CF86957105610508940895E89488
S1132030BB2766277727CB0197F908950BD0C4CF28
S1132040B5DF28F0BADF18F0952309F0A6CFABCF9F
S11320501124EECFCADFA0F3959FD1F3950F50E082
S1132060551F629FF001729FBB27F00DB11D639F46
S1132070AA27F00DB11DAA1F649F6627B00DA11DEC
S1132080661F829F2227B00DA11D621F739FB00D92
S1132090A11D621F839FA00D611D221F749F332702
S11320A0A00D611D231F849F600D211D822F762F9B
S11320B06A2F11249F5750408AF0E1F088234AF098
S11320C0EE0FFF1FBB1F661F771F881F91505040E4
S11320D0A9F79E3F510570F060CFAACF5F3FECF3A4
S11320E0983EDCF3869577956795B795F795E795D0
S11320F09F5FC1F7FE2B880F911D9695879597F9E1
S1132100089511F40EF44FCF3EC077DFD0F3992336
S1132110D9F3CEF39F57550B87FF43D00024A0E695
S113212040EA900180585695979528F4805C660F94
S1132130771F881F20F026173707480730F4621BE3
S1132140730B840B202931294A2BA69517940794E5
S1132150202531254A2758F7660F771F881F20F05E
S113216026173707480730F4620B730B840B200DD6
S1132170311D411DA09581F7B901842F9158880F15
S11321809695879508959F3F31F0915020F4879557
S113219077956795B795880F911D9695879597F9CB
S11321A0089591505040660F771F881FD2F7089505
S11321B097FB072E16F4009406D077FD08D00BD0B9
S11321C007FC05D03EF4909581959F4F0895709536
S11321D061957F4F0895AA1BBB1B51E107C0AA1F3D
S11321E0BB1FA617B70710F0A61BB70B881F991FB4
S11321F05A95A9F780959095BC01CD01089581E089
S10D220090E0F89400C0F894FFCFBA
S113220A0000803F0000000000000000FA7E2A3F20
S113221A10E9EFBF3AAF193F4F3B2C3F6F12033C13
S113222A250681BDCDCCCC3CFDB30B39CDCC1C3AB3
S9030000FC
