S01700006D61696E6672616D6576312E342E332E73726563F3
S113000089C00000A6C00000A4C00000A2C0000077
S1130010A0C000009EC000009CC000009AC0000068
S113002098C0000096C0000094C0000092C0000078
S113003090C000008EC000008CC000008AC0000088
S1130040F6C1000086C0000084C0000082C0000029
S113005080C000007EC000007CC000007AC00000A8
S113006078C0000076C0000074C0000072C00000B8
S113007070C000006EC000006CC000006AC00000C8
S113008068C0000066C0000064C00000036EDB3678
S11300903D9A9999993DABAAAA2A3E000000803F57
S11300A0084AD73B3BCE016E84BCBFFDC12F3D6CDB
S11300B074319ABD56833DDA3D00C77F11BED9E441
S11300C0BB4C3E916BAAAABE000000803F072C7A6D
S11300D0A5BA6CC590DA3B9365FC8BBC53F810FD54
S11300E03C5692834DBD879D3AB63DCBC9BF5BBE9E
S11300F073DA0FC93F05A84CCDB2D44EB93836A92E
S1130100020C50B9918688083CA6AAAA2ABE00000F
S113011000803F0011241FBECFEFD0E1DEBFCDBF72
S113012011E0A0E0B1E0EAE0F1E300E00BBF02C0BF
S113013007900D92A033B107D9F722E0A0E3B1E014
S113014001C01D92A438B207E1F70E94B4080C94D0
S1130150831856CF109271008CE08093700008953C
S11301600F931F93CF93DF938A01880F2AE030E027
S1130170E4E7F0E054EAA1E7B0E0C3E7D0E044E804
S113018074E9508390819923ECF79C91987F98307F
S113019089F58883408390819923ECF79C91987F1B
S11301A0983161F07083908194FDFDCF2150310925
S11301B021F195E39A95F1F70000E3CF6093730082
S11301C084E880937400E4E7F0E080818823ECF70E
S11301D080917100887F883299F4012BA1F084E921
S11301E080937400E4E7F0E0808184FDFDCF80E03B
S11301F090E00BC08FEF9FEF08C08EEF9FEF05C01C
S11302008DEF9FEF02C080E090E0DF91CF911F91CE
S11302100F910895AF92BF92DF92EF92FF920F93E6
S11302201F93CF93DF93E82EEE0CAAE0B0E0E4E74F
S1130230F0E084EA0F2EF1E7AF2EB12CF02D03E7A6
S113024010E00F2EF4E8FF2EF02D0F2EF4E9DF2E30
S1130250F02D808390819923ECF7E5019881987FB4
S1130260983009F040C0E801E882F0829081992337
S1130270ECF7E5019881987F983121F4141615065E
S113028064F024C0D082908194FDFDCF119771F168
S1130290D5E3DA95F1F70000DCCFDB01460F571FF9
S11302A063E770E0E4E7F0E094E801E710E08D91A3
S11302B0EB018883908380818823ECF7E8018881AF
S11302C0887F8832B1F4A417B50789F7232BA1F0EE
S11302D084E980937400E4E7F0E0808184FDFDCF3D
S11302E080E090E00BC08FEF9FEF08C08EEF9FEF90
S11302F005C08DEF9FEF02C080E090E0DF91CF91C9
S11303001F910F91FF90EF90DF90BF90AF900895F1
S1130310EF92FF920F931F93CF93DF93880F816027
S11303202AE030E0E4E7F0E014EAA1E7B0E0C3E754
S1130330D0E004E80F2EF4E9FF2EF02D1083908115
S11303409923ECF79C91987F983029F09C91987FA1
S1130350903109F05AC08883008390819923ECF787
S11303609C91987F903441F441505109141615061C
S113037084F020E030E02BC0F082908194FDFDCF2A
S11303802150310909F444C095E39A95F1F700002E
S1130390D5CFDB0120E030E0E4E7F0E094EC0F2E71
S11303A0F1E7EF2EF12CF02D03E710E0908380812C
S11303B08823ECF7E7018881887F803561F5E801BF
S11303C088818D932F5F3F4F241735077CF384E892
S11303D080937400E4E7F0E080818823ECF7809157
S11303E07100887F8835D1F480917300FB01E20F9E
S11303F0F31F808384E980937400E4E7F0E0808154
S113040084FDFDCF80E090E00BC08FEF9FEF08C02C
S11304108EEF9FEF05C08AEF9FEF02C089EF9FEF39
S1130420DF91CF911F910F91FF90EF9008951F924C
S11304300F920FB60F9211240BB60F924F925F9248
S11304406F927F928F929F92AF92BF92CF92DF92E0
S1130450EF92FF920F931F932F933F934F935F93CA
S11304606F937F938F939F93AF93BF93EF93FF9378
S1130470CF93DF93CDB7DEB72C97DEBFCDBF86E039
S113048082BF8091BC019091BD0101969093BD0102
S11304908093BC0162E072E08AE492E00E94480C1E
S11304A0209124013091250140912601509127018A
S11304B0A2E0B2E06D917D918D919C910E94D41443
S11304C04B015C01B7FAB094B7F8B0948092B801CC
S11304D09092B901A092BA01B092BB01209120017F
S11304E03091210140912201509123016091060233
S11304F07091070280910802909109020E94D4141D
S11305006B017C01F7FAF094F7F8F094C092B4010F
S1130510D092B501E092B601F092B70120911C018E
S113052030911D0140911E0150911F0160910A02FA
S113053070910B0280910C0290910D020E94D414D0
S11305402B013C0177FA709477F870944092B001D3
S11305505092B1016092B2017092B3018091000196
S113056090910101A0910201B091030189839A83C2
S1130570AB83BC8320915C0130915D0140915E01AD
S113058050915F01C501B4010E94D41429813A81BC
S11305904B815C810E9495179B01AC01C501B4019C
S11305A00E94D4146D837E838F8398876093500157
S11305B070935101809352019093530120915801FB
S11305C03091590140915A0150915B01C701B60124
S11305D00E94D41429813A814B815C810E94951731
S11305E09B01AC01C701B6010E94D41469877A87C4
S11305F08B879C8760934C0170934D0180934E01CF
S113060090934F012091540130915501409156012E
S113061050915701C301B2010E94D41429813A8137
S11306204B815C810E9495179B01AC01C301B2010F
S11306300E94D414609348017093490180934A0145
S113064090934B015B016C01D7FAD094D7F8D09406
S1130650E984FA840B851C8517FB109517F910950E
S11306602D813E814F81588550580F2EF6E58F2EEF
S1130670F2E09F2EF02D60E070E0CB010E948C0D23
S11306804AE352E0B4018AEC91E00E94A30F2AE30A
S113069032E04FE652E163E07CE3C9010E94CA13F1
S11306A04AEC51E06AE372E0CA010E945D136AEC0D
S11306B071E0CB010E942D0F68E772E08AEC91E0B3
S11306C00E94D60D8091500190915101A091520148
S11306D0B091530180935C0190935D01A0935E01FE
S11306E0B0935F0180914C0190914D01A0914E0116
S11306F0B0914F018093580190935901A0935A01EE
S1130700B0935B018091480190914901A0914A0105
S1130710B0914B018093540190935501A0935601DD
S1130720B0935701209118013091190140911A0199
S113073050911B01AAE4B2E06D917D918D919C9141
S11307400E94D4142B013C0160938C0170938D01A1
S113075080938E0190938F012091140130911501A3
S1130760409116015091170160914E0270914F0211
S113077080915002909151020E94D4144B015C016B
S1130780609388017093890180938A0190938B010F
S113079020911001309111014091120150911301E7
S11307A060915202709153028091540290915502CB
S11307B00E94D4146B017C016093840170938501C1
S11307C080938601909387018091000190910101AB
S11307D0A0910201B091030189839A83AB83BC8306
S11307E020914401309145014091460150914701C7
S11307F0C301B2010E94D41429813A814B815C81E6
S11308000E9495179B01AC01C301B2010E94D4144C
S11308102B013C01609338017093390180933A01B4
S113082090933B012091400130914101409142015C
S113083050914301C501B4010E94D41429813A8125
S11308404B815C810E9495179B01AC01C501B401E9
S11308500E94D4144B015C01609334017093350100
S1130860809336019093370120913C0130913D01F2
S113087040913E0150913F01C701B6010E94D4143A
S113088029813A814B815C810E9495179B01AC01BF
S1130890C701B6010E94D4146093300170933101F2
S11308A08093320190933301409244015092450168
S11308B060924601709247018092400190924101FA
S11308C0A0924201B092430160933C0170933D01B8
S11308D080933E0190933F0182E792E00E94560D7F
S11308E0A2E7B2E06D917C91072E000C880B990B66
S11308F00E94541620910C0130910D0140910E017B
S113090050910F010E94D4146B017C0160937C010F
S113091070937D0180937E0190937F0160917402B6
S113092070917502072E000C880B990B0E945416C7
S1130930209108013091090140910A0150910B0165
S11309400E94D4144B015C01609380017093810177
S11309508093820190938301609176027091770273
S1130960072E000C880B990B0E9454162091040149
S11309703091050140910601509107010E94D41461
S1130980DC01CB01B0588093780190937901A09356
S11309907A01B0937B01EAEDF1E080829182A28238
S11309A0B382C482D582E682F78280879187A28748
S11309B0B3878091340190913501A0913601B091B3
S11309C0370189839A83AB83BC834090380150906C
S11309D0390160903A0170903B01C301B201905813
S11309E029813A814B815C810E945F156D837E83EE
S11309F08F83988724E13EE245E652E460918002C9
S1130A007091810280918202909183020E949517D5
S1130A1069877A878B879C872BE13FE245E652E41E
S1130A206D817E818F8198850E9495179B01AC0111
S1130A3069857A858B859C850E94D5146093A00175
S1130A407093A1018093A2019093A301A301920149
S1130A50C301B2010E94951769877A878B879C87A7
S1130A60A3019201C301B2010E9495172B013C011D
S1130A7029813A814B815C81CA01B9010E94951791
S1130A809B01AC01C301B2010E94D5140E9402185B
S1130A9020E030E040E251E40E94B9150E9439158B
S1130AA024E13EE245E652E40E9495172B013C0105
S1130AB060939C0170939D0180939E0190939F018C
S1130AC0A5019401C701B6010E945F1524E13EE22D
S1130AD045E652E40E9495179B01AC016091940194
S1130AE07091950180919601909197010E94D41480
S1130AF0609398017093990180939A0190939B015C
S1130B0020E030E040E05FE3C301B2010E949517AA
S1130B1024E13EE245E652E40E94B9152B013C0172
S1130B200E94F8176B017C016D817E818F8198850D
S1130B300E94F8174B015C016D817E818F8198853D
S1130B400E94B61569837A838B839C83C301B201A7
S1130B500E94B6152B013C01A5019401C701B60101
S1130B600E9495176D837E838F83988729813A81AC
S1130B704B815C81C701B6010E9495179B01AC01B2
S1130B800F2EFEE18F2EF2E09F2EF02DA12CB12C22
S1130B906501ED80FE800F811885C301B201BCD7C9
S1130BA04EEB51E06AED71E0C4010E940111EEEBDD
S1130BB0F1E0208131814281538164817581868194
S1130BC097810E945F156B017C0124E13EE245E6BA
S1130BD052E46091940170919501809196019091F5
S1130BE097010E94B915A70196010E94D41460933D
S1130BF0900170939101809392019093930120E06E
S1130C0030E040E05FE30E9495172B013C010E9415
S1130C10F8175B016C01C301B2010E94B6150F2ED7
S1130C20F6EE8F2EF1E09F2EF02DE12CF12C8701B2
S1130C30A801970171D74EE052E06EE172E0C40161
S1130C400E94A30F8091BC019091BD0149970CF4BF
S1130C5062C220E030E04AE754E46091CE01709132
S1130C60CF018091D0019091D1010E9495170E94EB
S1130C702616CB010E945F1489E00E94571420E0DD
S1130C8030E04AE754E46091D2017091D30180913D
S1130C90D4019091D5010E9495170E942616CB018C
S1130CA00E945F1489E00E94571420E030E04AE774
S1130CB054E46091D6017091D7018091D80190914C
S1130CC0D9010E9495170E942616CB010E945F1439
S1130CD089E00E94571489E00E94571489E00E9419
S1130CE0571460919C0170919D0180919E01909197
S1130CF09F010E942616CB010E945F1489E00E9486
S1130D00571420E030E04AE754E4AEE1B2E06D91DC
S1130D107D918D919C910E9495170E942616CB017E
S1130D200E945F1489E00E94571420E030E04AE7F3
S1130D3054E46091220270912302809124029091E4
S1130D4025020E9495170E942616CB010E945F146B
S1130D5089E00E94571420E030E04AE754E46091AF
S1130D6026027091270280912802909129020E9404
S1130D7095170E942616CB010E945F1489E00E94F9
S1130D80571420E030E04AE754E460912A0270915D
S1130D902B0280912C0290912D020E9495170E94A3
S1130DA02616CB010E945F1489E00E94571489E043
S1130DB00E945714EAEDF1E0608171818281938190
S1130DC00E942616CB010E945F1489E00E945714EA
S1130DD06091DE017091DF018091E0019091E10169
S1130DE00E942616CB010E945F1489E00E945714CA
S1130DF06091E2017091E3018091E4019091E50139
S1130E000E942616CB010E945F1489E00E945714A9
S1130E10AEEBB1E06D917D918D919C910E9426166F
S1130E20CB010E945F1489E00E9457146091C201B3
S1130E307091C3018091C4019091C5010E9426164E
S1130E40CB010E945F1489E00E9457146091C6018F
S1130E507091C7018091C8019091C9010E94261622
S1130E60CB010E945F1489E00E94571489E00E941C
S1130E70571426EF38E245E652E4609190017091F0
S1130E80910180919201909193010E9495170E9483
S1130E902616CB010E945F1489E00E94571420E0BB
S1130EA030E04AE754E4F4016081718182819381E6
S1130EB00E9495170E942616CB010E945F1489E0B8
S1130EC00E94571420E030E04AE754E46091EA01BC
S1130ED07091EB018091EC019091ED010E949517C6
S1130EE00E942616CB010E945F1489E00E945714C9
S1130EF020E030E04AE754E46091EE017091EF01A4
S1130F008091F0019091F1010E9495170E9426169C
S1130F10CB010E945F1489E00E94571420E030E066
S1130F204AE754E46091F2017091F3018091F40175
S1130F309091F5010E9495170E942616CB010E94FC
S1130F405F1489E00E94571489E00E94571420E03E
S1130F5030E04AE754E460911202709113028091E8
S1130F601402909115020E9495170E942616CB0137
S1130F700E945F1489E00E94571420E030E04AE7A1
S1130F8054E46091160270911702809118029091B6
S1130F9019020E9495170E942616CB010E945F1425
S1130FA089E00E94571420E030E04AE754E460915D
S1130FB01A0270911B0280911C0290911D020E94E2
S1130FC095170E942616CB010E945F1489E00E94A7
S1130FD0571468E772E08EE092E0E8D52DEC3CEC23
S1130FE04CEC5DE360917C0270917D0280917E0205
S1130FF090917F020E94B21588232CF480E090E047
S11310000E945F1419C020E030E044E353E460918F
S113101078027091790280917A0290917B020E9409
S1131020951728ED3FE049E450E40E94B9150E9469
S11310302616CB010E945F1489E00E94571420E019
S113104030E044E353E460917C0270917D0280912E
S11310507E0290917F020E94951728ED3FE049E4BB
S113106050E40E94B9150E942616CB010E945F1419
S113107089E00E94571420E030E044E353E4609197
S113108080027091810280918202909183020E9479
S1131090951728ED3FE049E450E40E94B9150E94F9
S11310A02616CB010E945F1489E00E9457146091B8
S11310B0A0017091A1018091A2019091A3010E94CD
S11310C02616CB010E945F1489E00E945714609198
S11310D09C0170919D0180919E0190919F010E94BD
S11310E02616CB010E945F1489E00E945714609178
S11310F098017091990180919A0190919B010E94AD
S11311002616CB010E945F148AE00E9457141092A5
S1131110BD011092BC012C960FB6F894DEBF0FBE31
S1131120CDBFDF91CF91FF91EF91BF91AF919F918F
S11311308F917F916F915F914F913F912F911F916B
S11311400F91FF90EF90DF90CF90BF90AF909F9062
S11311508F907F906F905F904F900F900BBE0F9089
S11311600FBE0F901F9018952FEF83ED90E3215041
S113117080409040E1F700C000000E943F1460E806
S11311807AE186E090E09BD22FEF83ED90E321504B
S113119080409040E1F700C0000013BE86E082BFAB
S11311A081E087BF83B7876083BF62E072E08AE42F
S11311B092E06ED382E792E031D4C2E7D2E0888134
S11311C099810E945F1489E00E9457148A819B814F
S11311D00E945F1489E00E9457148C819D810E94B3
S11311E05F148AE00E9457148FE39CE90197F1F79A
S11311F000C0000000ED17E062E072E08AE492E0D3
S113120047D3C2E0D2E0288139814A815B81609171
S1131210AC017091AD018091AE019091AF010E943B
S1131220D5146093AC017093AD018093AE0190939B
S1131230AF012C813D814E815F816091A801709145
S1131240A9018091AA019091AB010E94D5146093E9
S1131250A8017093A9018093AA019093AB012885FA
S113126039854A855B856091A4017091A5018091BF
S1131270A6019091A7010E94D5146093A4017093D4
S1131280A5018093A6019093A70182E792E00ED472
S1131290C2E7D2E068817981072E000C880B990B94
S11312A00E94541620910C0130910D0140910E01C1
S11312B050910F010E94D4149B01AC016091740100
S11312C07091750180917601909177010E94D514F7
S11312D06093740170937501809376019093770104
S11312E06A817B81072E000C880B990B0E9454168F
S11312F0209108013091090140910A0150910B019C
S11313000E94D4149B01AC01609170017091710131
S113131080917201909173010E94D51460937001C1
S11313207093710180937201909373016C817D813C
S1131330072E000C880B990B0E945416209104016F
S11313403091050140910601509107010E94D41487
S11313509B01AC0160916C0170916D0180916E01F3
S113136090916F010E94D51460936C0170936D018C
S113137080936E0190936F018FE39CE90197F1F7DD
S113138000C000000150110909F036CF2DEC3CECEF
S11313904CEC5DE36091AC017091AD018091AE01C4
S11313A09091AF010E94951720E030E04AEF54E499
S11313B00E94B9156B017C0126E636E646E65FE33A
S11313C0609124017091250180912601909127015B
S11313D00E9495179B01AC01C701B6010E94D51468
S11313E06B017C0160932401709325018093260195
S11313F0909327012DEC3CEC4CEC5DE36091A8014B
S11314007091A9018091AA019091AB010E94951756
S113141020E030E04AEF54E40E94B9154B015C012E
S113142026E636E646E65FE36091200170912101ED
S113143080912201909123010E9495179B01AC0198
S1131440C501B4010E94D514609320017093210159
S113145080932201909323012AE939E949E95EE363
S11314606091A4017091A5018091A6019091A701BA
S11314700E94951720E030E04AEF54E40E94B91529
S11314804B015C0123E333E343E35FE360911C011D
S113149070911D0180911E0190911F010E9495176A
S11314A09B01AC01C501B4010E94D51460931C01D9
S11314B070931D0180931E0190931F0120E030E082
S11314C04AEF54E460917401709175018091760142
S11314D0909177010E94B9154B015C0160936801FA
S11314E07093690180936A0190936B0120E030E06E
S11314F04AEF54E46091700170917101809172011E
S1131500909173010E94B9152B013C016093640111
S113151070936501809366019093670120E030E049
S11315204AEF54E460916C0170916D0180916E01F9
S113153090916F010E94B9156093600170936101ED
S11315408093620190936301A3019201C501B401E8
S11315500E945F1524E13EE245E652E40E9495179D
S113156060939401709395018093960190939701F1
S113157020E030E543EC57E4C701B6010E9495171B
S11315800E942116CB010E945F1489E00E94571427
S113159020E030E543EC57E4609120017091210193
S11315A080912201909123010E9495170E94211697
S11315B0CB010E945F1489E00E94571420E030E5BB
S11315C043EC57E460911C0170911D0180911E0150
S11315D090911F010E9495170E942116CB010E9431
S11315E05F1489E00E94571489E00E9457146091A7
S11315F094017091950180919601909197010E94B8
S11316002116CB010E945F1489E00E9457148AE0DE
S11316100E9457149FEF23E284EF915020408040B2
S1131620E1F700C000008AEC91E0A6D278948AE049
S11316300E9457149FEF27E883E191502040804097
S1131640E1F700C000009FEF21EE84E091502040BC
S11316508040E1F700C00000F6CFCF93DF9300D0C5
S1131660CDB7DEB789836A8321E030E042E050E001
S1131670BE016F5F7F4F88E60E940A010F900F90B2
S1131680DF91CF9108950F931F93CF93DF93EB01D5
S11316908A01682F606840E050E088E60E94B0004C
S11316A0992334F0A801BE0188E60E94880102C093
S11316B08FEF9FEFDF91CF911F910F9108950E94BB
S11316C0AA0060E88BE6C9DF8FE39CE90197F1F794
S11316D000C000008FE39CE90197F1F700C000000F
S11316E08FE39CE90197F1F700C000008FE39CE9C8
S11316F00197F1F700C000008FE39CE90197F1F72F
S113170000C000008FE39CE90197F1F700C00000DE
S11317108FE39CE90197F1F700C000008FE39CE997
S11317200197F1F700C000008FE39CE90197F1F7FE
S113173000C000008FE39CE90197F1F700C00000AE
S113174067E088E68ADF8FE39CE90197F1F700C040
S113175000008FE39CE90197F1F700C000008FE3DC
S11317609CE90197F1F700C000008FE39CE9019721
S1131770F1F700C000008FE39CE90197F1F700C086
S113178000008FE39CE90197F1F700C000008FE3AC
S11317909CE90197F1F700C000008FE39CE90197F1
S11317A0F1F700C000008FE39CE90197F1F700C056
S11317B000008FE39CE90197F1F700C0000060E0AE
S11317C088E64BDF8FE39CE90197F1F700C0000046
S11317D060E28AE642DF6DE084E23FDF8FE39CE96A
S11317E00197F1F700C000006CE085E236DF6BE0A2
S11317F086E233DF61E083E630DF61E887E22DDFF4
S11318009FEF20E782E0915020408040E1F700C044
S113181000006CE085E221DF6AE086E21EDF60E121
S113182083E61BDF61E887E218DF9FEF20E782E0B1
S1131830915020408040E1F700C000006CE085E258
S11318400CDF6AE086E209DF66E183E606DF61E831
S113185087E203DF9FEF20E782E091502040804041
S1131860E1F700C000006CE885E2F7DE63E086E2A1
S1131870F4DE67E887E2F1DE9FEF20E782E0915033
S113188020408040E1F700C0000080E090E008952F
S11318908F929F92AF92BF92CF92DF92EF92FF927C
S11318A00F931F93CF93DF93CDB7DEB76A970FB62D
S11318B0F894DEBF0FBECDBF7C018B014EE050E03B
S11318C0BE016F5F7F4F8BE3DEDE99230CF491C082
S11318D08A818F878981888B8A858D8B89858E8B78
S11318E08C81898B8B818A8B8C858F8B8B85888F60
S11318F08E818B8B8D818C8B8E85898F8D858A8F44
S113190080902C0190902D01A0902E01B0902F0179
S11319106F857889072E000C880B990B0E9454164A
S1131920A50194010E949517F70160837183828356
S1131930938369897A89072E000C880B990B0E947E
S11319405416A50194010E949517F70164837583C9
S1131950868397836B897C89072E000C880B990BEF
S11319600E945416A50194010E949517F7016087FF
S1131970718782879387C0902801D0902901E090D5
S11319802A01F0902B016D897E89072E000C880BAB
S1131990990B0E945416A70196010E949517F8010D
S11319A060837183828393836F89788D072E000C03
S11319B0880B990B0E945416A70196010E94951753
S11319C0F8016483758386839783698D7A8D072EE6
S11319D0000C880B990B0E945416A70196010E94D3
S11319E09517F801608771878287938780E090E07C
S11319F002C08FEF9FEF6A960FB6F894DEBF0FBE5A
S1131A00CDBFDF91CF911F910F91FF90EF90DF90A9
S1131A10CF90BF90AF909F908F9008950F931F9396
S1131A20CF93DF9300D000D000D0CDB7DEB7082F1E
S1131A30192F6CE885E211DE63E086E20EDE67E8CA
S1131A4087E20BDE2FEF80E792E021508040904048
S1131A50E1F700C0000046E050E0BE016F5F7F4F39
S1131A6089E411DE9923ACF0FE013196A02FB12F49
S1131A709E01295F3F4F80818C93818111968C93C5
S1131A80119732961296E217F307A9F780E090E0D7
S1131A9002C08FEF9FEF26960FB6F894DEBF0FBEFD
S1131AA0CDBFDF91CF911F910F9108950F931F9395
S1131AB0CF93DF9300D000D000D0CDB7DEB7082F8E
S1131AC0192F46E050E0BE016F5F7F4F89E4DBDDF4
S1131AD09923ACF0FE013196A02FB12F9E01295F0E
S1131AE03F4F80818C93818111968C93119732960C
S1131AF01296E217F307A9F780E090E002C08FEF97
S1131B009FEF26960FB6F894DEBF0FBECDBFDF91D0
S1131B10CF911F910F9108958F929F92AF92BF9290
S1131B20CF92DF92EF92FF920F931F93CF93DF93A5
S1131B30CDB7DEB7F401309711F40E947F186083AB
S1131B407183828393832483358346835783E0861A
S1131B50F18602871387A486B586C686D786DF9169
S1131B60CF911F910F91FF90EF90DF90CF90BF9096
S1131B70AF909F908F900895FC01892B11F40E94DF
S1131B807F1880E090E0A0E8BFE380839183A28384
S1131B90B3831482158216821782108611861286E8
S1131BA01386148615861686178608954F925F92BB
S1131BB06F927F928F929F92AF92BF92CF92DF9259
S1131BC0EF92FF920F931F93CF93DF9300D000D037
S1131BD000D0CDB7DEB79E838D838B01672B11F4C4
S1131BE00E947F18ED81FE812081318142815381E1
S1131BF0648575858685978562D79B01AC01D5D6AA
S1131C006B017C01F8016087718782879387ED817E
S1131C10FE81248135814681578160857185828565
S1131C2093854DD74B015C0120E030E040E05FE359
S1131C30C701B6010E949517A5019401B6D6F80113
S1131C406083718382839383ED81FE8180809180A0
S1131C50A280B380C484D584E684F784A50194016A
S1131C60C501B4010E9495174B015C01A7019601BF
S1131C70C701B6010E9495179B01AC01C501B401CF
S1131C8094D60E94021869837A838B839C83ED81A6
S1131C90FE8180849184A284B384C480D580E6804C
S1131CA0F780A5019401C501B4010E9495174B0169
S1131CB05C01A7019601C701B6010E9495179B011B
S1131CC0AC01C501B40171D60E94021829813A8180
S1131CD04B815C81F4D69B01AC0167D6F801648327
S1131CE075838683978326960FB6F894DEBF0FBE5E
S1131CF0CDBFDF91CF911F910F91FF90EF90DF90B7
S1131D00CF90BF90AF909F908F907F906F905F9097
S1131D104F9008954F925F926F927F928F929F920D
S1131D20AF92BF92CF92DF92EF92FF92CF93DF9365
S1131D30CDB7DEB728970FB6F894DEBF0FBECDBF80
S1131D40FC01892B11F40E947F1880809180A2806D
S1131D50B380C480D580E680F78080859185A28594
S1131D60B3858D839E83AF83B8874484558466840A
S1131D707784A5019401C501B4010E949517698374
S1131D807A838B839C83A7019601C701B6010E94C5
S1131D9095179B01AC0169817A818B819C8105D661
S1131DA069837A838B839C832D813E814F815885FF
S1131DB0CA01B9010E9495179B01AC0169817A811E
S1131DC08B819C81F2D569837A838B839C83A50163
S1131DD09401C501B4010E9495174B015C01A70150
S1131DE09601C701B6010E9495179B01AC01C5017C
S1131DF0B401DBD56B017C012D813E814F81588577
S1131E00CA01B9010E9495179B01AC01C701B60133
S1131E10CCD56B017C01A3019201C301B2010E94E4
S1131E2095179B01AC01C701B601BFD50E940218EA
S1131E3028960FB6F894DEBF0FBECDBFDF91CF91C9
S1131E40FF90EF90DF90CF90BF90AF909F908F90D6
S1131E507F906F905F904F9008954F925F926F9232
S1131E607F928F929F92AF92BF92CF92DF92EF9226
S1131E70FF920F931F93CF93DF9300D000D000D035
S1131E80CDB7DEB78C017E836D83672B11F40E947E
S1131E907F1840DF69837A838B839C839B01AC0129
S1131EA0F801648575858685978563D66B017C0109
S1131EB029813A814B815C81F80160857185828535
S1131EC0938557D64B015C0129813A814B815C8112
S1131ED0F80164817581868197814BD62B013C0181
S1131EE029813A814B815C81F80160817181828111
S1131EF093813FD6ED81FE816083718382839383D6
S1131F00448255826682778280869186A286B386D1
S1131F10C486D586E686F78626960FB6F894DEBF85
S1131F200FBECDBFDF91CF911F910F91FF90EF9026
S1131F30DF90CF90BF90AF909F908F907F906F90E5
S1131F405F904F9008954F925F926F927F928F921D
S1131F509F92AF92BF92CF92DF92EF92FF92CF9374
S1131F60DF93CDB7DEB76A970FB6F894DEBF0FBE26
S1131F70CDBFDC01FB015A8F498F452B11F40E9420
S1131F807F18CD90DD90ED90FC90139720813181E6
S1131F904281538129833A834B835C8314962D9128
S1131FA03D914D915C9117972D833E834F835887C4
S1131FB0248135814681578129873A874B875C87FD
S1131FC018962D913D914D915C911B972D873E87DD
S1131FD04F87588B2085318542855385298B3A8BD1
S1131FE04B8B5C8B1C962D913D914D915C911F9771
S1131FF02D8B3E8B4F8B588F84849584A684B78415
S113200029813A814B815C81C701B6018ED72B01AE
S11320103C0129853A854B855C856D817E818F8164
S1132020988583D79B01AC01C301B201BDD42B01B8
S11320303C0129893A894B895C896D857E858F8528
S1132040988973D79B01AC01C301B201ADD42B01B4
S11320503C01A50194016D897E898F89988D65D78E
S11320609B01AC01C301B2019FD4E98DFA8D608359
S11320707183828393832D813E814F815885698149
S11320807A818B819C8151D72B013C0129853A852A
S11320904B855C85C701B60148D79B01AC01C301E0
S11320A0B20183D42B013C01A50194016D857E8589
S11320B08F8598893AD79B01AC01C301B20175D4CD
S11320C02B013C012D893E894F89588D69897A8974
S11320D08B899C892AD79B01AC01C301B20164D4CA
S11320E0E98DFA8D648375838683978329893A8978
S11320F04B895C89C701B60118D72B013C01A501A6
S113210094016D817E818F8198850FD79B01AC01ED
S1132110C301B20149D42B013C012D853E854F8575
S1132120588969817A818B819C81FFD69B01AC019E
S1132130C301B2013AD42B013C012D893E894F8958
S1132140588D69857A858B859C85EFD69B01AC017A
S1132150C301B2012AD4E98DFA8D60877187828721
S11321609387A5019401C701B601DFD66B017C01F9
S113217029893A894B895C896D817E818F81988513
S1132180D4D69B01AC01C701B6010FD46B017C010D
S11321902D853E854F85588969857A858B859C85F3
S11321A0C4D69B01AC01C701B601FED36B017C010F
S11321B02D893E894F89588D69817A818B819C81D3
S11321C0B4D69B01AC01C701B601EFD3E98DFA8DFA
S11321D064877587868797876A960FB6F894DEBFFB
S11321E00FBECDBFDF91CF91FF90EF90DF90CF90E6
S11321F0BF90AF909F908F907F906F905F904F9023
S113220008952F923F924F925F926F927F928F9296
S11322109F92AF92BF92CF92DF92EF92FF920F9371
S11322201F93CF93DF93CDB7DEB7E0970FB6F89443
S1132230DEBF0FBECDBF9A8389838B011A01452B64
S113224009F45DD7A981BA81CD90DD90ED90FC9021
S1132250A7019601C701B60168D6698B7A8B8B8B6F
S11322609C8BA981BA8114968D919D910D90BC91FE
S1132270A02D8D879E87AF87B88B9C01AD01BC01D3
S1132280CD0153D66D8B7E8B8F8B988FE981FA812C
S113229080849184A284B384A5019401C501B4010E
S11322A044D6698F7A8F8B8F9C8FA981BA811C96B3
S11322B04D905D906D907C901F97A3019201C30196
S11322C0B20133D66D8F7E8F8F8F98A3D8018D91F5
S11322D09D910D90BC91A02D89839A83AB83BC837F
S11322E0A5019401C701B60120D69B01AC015DD3C1
S11322F069A37AA38BA39CA3D80118968D919D9171
S11323000D90BC91A02D8D839E83AF83B887A301CC
S11323109201C701B60109D69B01AC0146D36DA356
S11323207EA38FA398A7D80114968D919D910D90AB
S1132330BC91A02D89879A87AB87BC87A50194019E
S11323406D857E858F859889F0D59B01AC012DD351
S113235069A77AA78BA79CA7A30192016D857E85A7
S11323608F859889E2D59B01AC011FD36DA77EA709
S11323708FA798ABA3019201C501B401D6D59B01E7
S1132380AC0113D34B015C012D853E854F855889E3
S1132390C701B601CAD59B01AC0107D32B013C018F
S11323A029813A814B815C8169897A898B899C89ED
S11323B0BCD56B017C012D813E814F81588569A17B
S11323C07AA18BA19CA1B1D59B01AC01C701B60137
S11323D0ECD26B017C0129853A854B855C856DA126
S11323E07EA18FA198A5A1D59B01AC01C701B6011F
S11323F0DBD26B017C0129813A814B815C816D893F
S11324007E898F89988D91D59B01AC01C701B60156
S1132410CCD26B017C0129A53AA54BA55CA56985A5
S11324207A858B859C8581D59B01AC01C701B6015A
S1132430BCD26B017C012DA53EA54FA558A96D8189
S11324407E818F81988571D59B01AC01C701B6014E
S1132450ACD26B017C0129813A814B815C816D8D09
S11324607E8D8F8D98A161D59B01AC01C701B6010A
S11324709BD26B017C0129813A814B815C81698DFE
S11324807A8D8B8D9C8D51D59B01AC01C701B60112
S11324908BD2F101608371838283938329A53AA54A
S11324A04BA55CA569817A818B819C813ED56B01AA
S11324B07C0129853A854B855C85698D7A8D8B8D68
S11324C09C8D33D59B01AC01C701B6016ED26B0163
S11324D07C01A50194016D817E818F81988525D52C
S11324E09B01AC01C701B60160D26B017C012DA137
S11324F03EA14FA158A569817A818B819C8115D514
S11325009B01AC01C701B60150D26B017C01298546
S11325103A854B855C856D8D7E8D8F8D98A105D513
S11325209B01AC01C701B6013FD26B017C01298537
S11325303A854B855C8569897A898B899C89F5D430
S11325409B01AC01C701B60130D26B017C01A30130
S113255092016D817E818F819885E7D49B01AC01C6
S1132560C701B60121D26B017C0129853A854B85CF
S11325705C856D897E898F89988DD7D49B01AC0148
S1132580C701B60111D2D10114966D937D938D9339
S11325909C9317972DA53EA54FA558A969817A81CB
S11325A08B819C81C2D46B017C01A5019401698556
S11325B07A858B859C85B9D49B01AC01C701B60192
S11325C0F4D16B017C012D813E814F8158856D8D45
S11325D07E8D8F8D98A1A9D49B01AC01C701B60152
S11325E0E4D16B017C0129A13AA14BA15CA16981D1
S11325F07A818B819C8199D49B01AC01C701B6017E
S1132600D3D16B017C012D813E814F815885698D29
S11326107A8D8B8D9C8D89D49B01AC01C701B60149
S1132620C3D16B017C01A301920169857A858B85F5
S11326309C857BD49B01AC01C701B601B6D16B016B
S11326407C012D813E814F8158856D897E898F89DA
S1132650988D6BD49B01AC01C701B601A5D16B0168
S11326607C012D813E814F81588569897A898B89C6
S11326709C895BD49B01AC01C701B60196D1F101E1
S11326806087718782879387E0960FB6F894DEBFE0
S11326900FBECDBFDF91CF911F910F91FF90EF90AF
S11326A0DF90CF90BF90AF909F908F907F906F906E
S11326B05F904F903F902F9008952F923F924F92AA
S11326C05F926F927F928F929F92AF92BF92CF92BE
S11326D0DF92EF92FF920F931F93CF93DF931C012E
S11326E08B01EA01209709F40AD5FB012481358185
S11326F046815781FC01648175818681978155D11A
S11327002B013C01F8012085318542855385F10177
S1132710608571858285938548D14B015C01F80100
S11327202485358546855785F101648575858685BB
S113273097853BD16B017C01F80120813181428175
S11327405381F10160817181828193812ED16883EB
S113275079838A839B834C825D826E827F828886A2
S11327609986AA86BB86CC86DD86EE86FF86DF91B7
S1132770CF911F910F91FF90EF90DF90CF90BF907A
S1132780AF909F908F907F906F905F904F903F900D
S11327902F9008954F925F926F927F928F929F92A3
S11327A0AF92BF92CF92DF92EF92FF920F931F935B
S11327B0CF93DF9300D000D000D0CDB7DEB79E8397
S11327C08D8349835A836B837C838901FC01248133
S11327D035814681578169817A818B819C81A5D31A
S11327E02B013C01ED81FE81208531854285538595
S11327F069817A818B819C8198D34B015C01ED8145
S1132800FE81248535854685578569817A818B814A
S11328109C818BD36B017C0129813A814B815C8142
S1132820ED81FE8160817181828193817ED3F80183
S11328306083718382839383448255826682778224
S113284080869186A286B386C486D586E686F78678
S113285026960FB6F894DEBF0FBECDBFDF91CF91A1
S11328601F910F91FF90EF90DF90CF90BF90AF90AA
S11328709F908F907F906F905F904F9008951092EB
S1132880980080E180939900EBE9F0E08081826018
S11328908083EDE9F0E0808186608083EAE9F0E0FE
S11328A08081806180838081886080830895EBE9E2
S11328B0F0E0908195FFFDCF80939C000895EF9206
S11328C0FF920F931F93CF93DF9300D000D000D0DB
S11328D0CDB7DEB720E330E03A832983FE01339697
S11328E024E0DF011D922A95E9F7181619060CF069
S11328F049C0329700E010E00F2EFAE0EF2EF12CE1
S1132900F02D01C08901B701D3D3805D8193862F57
S1132910972F98012F5F3F4F0097A1F7FE01E20F19
S1132920F31F11821FC091958195910989F0FE01D1
S1132930319600E010E02AE030E0B901B9D3805DBF
S11329408193862F972F0F5F1F4F0097B1F702C017
S113295000E010E0FE01E00FF11F118201501109A7
S11329608DE2A5DF11239CF0CE01800F911FFC01A5
S113297032967F01D7018E917D0199DF01501109B3
S1132980CAF705C099237CF200E010E0EDCF26964B
S11329900FB6F894DEBF0FBECDBFDF91CF911F916C
S11329A00F91FF90EF9008955058BB27AA270ED09F
S11329B06AC233D230F038D220F031F49F3F11F4A0
S11329C01EF4F2C10EF4E095E7FBE8C1E92F7DD2D5
S11329D080F3BA17620773078407950718F071F438
S11329E09EF595C20EF4E0950B2EBA2FA02D0B0187
S11329F0B90190010C01CA01A0011124FF27591B40
S1132A0099F0593F50F4503E68F11A16F040A22F45
S1132A10232F342F4427585FF3CF469537952795B6
S1132A20A795F0405395C9F77EF41F16BA0B620BB5
S1132A30730B840BBAF09150A1F0FF0FBB1F661FFC
S1132A40771F881FC2F70EC0BA0F621F731F841F3F
S1132A5048F4879577956795B795F7959E3F08F065
S1132A60B3CF9395880F08F09927EE0F9795879524
S1132A7008959F939F77EEE389379E0720F4ECE84F
S1132A80F0E0BAD109C04BD19058A2EA2AED3FE058
S1132A9049EC5FE39BDFF7D10F9007FC9058089552
S1132AA0BCD158F080E891E009F49EEFBDD128F044
S1132AB040E851E059F45EEF09C076C128C2E92F1D
S1132AC0E07803D268F3092E052AC1F326173707E5
S1132AD04807590738F00E2E07F8E02569F0E0257D
S1132AE0E0640AC0EF6307F8009407FADB01B90158
S1132AF09D01DC01CA01AD01EF934AD0C4D10AD0D3
S1132B005F91552331F02BED3FE049E450FD49EC52
S1132B104CCF0895DF93DD27B92FBF7740E85FE3FB
S1132B201616170648075B0710F4D92FF7D19F93A1
S1132B308F937F936F93A4D2E0EAF0E038D1A3D1CE
S1132B402F913F914F915F91FCD1DD2349F0905833
S1132B50A2EA2AED3FE049EC5FE3D0785D2736DF57
S1132B60DF9191C1F7D008F481E0089565D1E39530
S1132B709BC10CD088C158D140F04FD130F021F422
S1132B805F3F19F00BC15111C3C10EC19ED198F31F
S1132B909923C9F35523B1F3951B550BBB27AA27DA
S1132BA062177307840738F09F5F5F4F220F331F4C
S1132BB0441FAA1FA9F333D00E2E3AF0E0E830D018
S1132BC091505040E695001CCAF729D0FE2F27D01B
S1132BD0660F771F881FBB1F261737074807AB07E9
S1132BE0B0E809F0BB0B802DBF01FF2793585F4F5E
S1132BF02AF09E3F510568F0D1C08AC15F3FECF3D3
S1132C00983EDCF3869577956795B795F7959F5F22
S1132C10C9F7880F911D9695879597F90895E1E076
S1132C20660F771F881FBB1F621773078407BA07D5
S1132C3020F0621B730B840BBA0BEE1F88F7E09530
S1132C40089504D06894B11163C1089546D188F001
S1132C509F5790F0B92F9927B751A0F0D1F0660F84
S1132C60771F881F991F1AF0BA95C9F712C0B1309F
S1132C7081F04DD1B1E008954AC1672F782F88279C
S1132C80B85F39F0B93FCCF3869577956795B395DE
S1132C90D9F73EF490958095709561957F4F8F4F4D
S1132CA09F4F0895E89409C097FB3EF49095809552
S1132CB0709561957F4F8F4F9F4F9923A9F0F92FFE
S1132CC096E9BB279395F695879577956795B7957C
S1132CD0F111F8CFFAF4BB0F11F460FF1BC06F5F62
S1132CE07F4F8F4F9F4F16C0882311F096E911C074
S1132CF0772321F09EE8872F762F05C0662371F095
S1132D0096E8862F70E060E02AF09A95660F771FA8
S1132D10881FDAF7880F9695879597F90895DF93BA
S1132D20CF931F930F938B01EC01EDECF0E03FD0B8
S1132D30AAD09801AE018B01EC0160E070E080E85C
S1132D409FE332DE5FD19801AE010F911F91CF91C5
S1132D50DF91F7C0990F0008550FAA0BE0E8FEEFCA
S1132D6016161706E807F907C0F012161306E4074B
S1132D70F50798F0621B730B840B950B39F40A2644
S1132D8061F0232B242B252B21F408950A2609F422
S1132D90A140A6958FEF811D811D089597F99F6726
S1132DA080E870E060E008959FEF80EC0895DF9381
S1132DB0CF931F930F93FF92EF92DF927B018C01CD
S1132DC0689405C0DA2EEF01BCD0FE01E894A59109
S1132DD02591359145915591AEF3EF01F7DDFE0153
S1132DE09701A801DA9479F7DF90EF90FF900F91A3
S1132DF01F91CF91DF9108959F938F937F936F934A
S1132E00FF93EF939B01AC0190D0EF91FF91CFDF43
S1132E102F913F914F915F9188C000240A94161618
S1132E20170618060906089500240A9412161306B4
S1132E30140605060895B8CF50D0E8F3E894E0E00E
S1132E40BB279F57F0F02AED3FE049EC06C0EE0F98
S1132E50BB0F661F771F881F28F0B23A62077307FB
S1132E60840728F0B25A620B730B840BE3959A958E
S1132E7072F7803830F49A95BB0F661F771F881F4E
S1132E80D2F7904802C1092E0394000C11F4882350
S1132E9052F0BB0F40F4BF2B11F460FF04C06F5F0E
S1132EA07F4F8F4F9F4F0895EF93E0FF06C0A2EA34
S1132EB02AED3FE049EC5FEB89DDE5DF0F900394F9
S1132EC001FC9058E5EFF0E097CF57FD9058440F80
S1132ED0551F59F05F3F71F04795880F97FB991F75
S1132EE061F09F3F79F08795089512161306140632
S1132EF0551FF2CF4695F1DF08C0161617061806BF
S1132F00991FF1CF86957105610508940895E89499
S1132F10BB2766277727CB0197F908959B01AC015E
S1132F2060E070E080E89FE324CE0BD0ACCF75DF87
S1132F3028F07ADF18F0952309F030CF35CF11242B
S1132F40E7CFC3DFA0F3959FD1F3950F50E0551F52
S1132F50629FF001729FBB27F00DB11D639FAA27EA
S1132F60F00DB11DAA1F649F6627B00DA11D661F39
S1132F70829F2227B00DA11D621F739FB00DA11D5A
S1132F80621F839FA00D611D221F749F3327A00D14
S1132F90611D231F849F600D211D822F762F6A2FB0
S1132FA011249F5750408AF0E1F088234AF0EE0F35
S1132FB0FF1FBB1F661F771F881F91505040A9F742
S1132FC09E3F510570F0EACEA3CF5F3FECF3983EED
S1132FD0DCF3869577956795B795F795E7959F5FA9
S1132FE0C1F7FE2B880F911D9695879597F9089543
S1132FF09F9322DF0F9007FCEE5F56CF11F40EF47F
S1133000D3CE41C06ADFD0F39923D9F3CEF39F57CF
S1133010550B87FF46D00024A0E640EA9001805873
S11330205695979528F4805C660F771F881F20F0CB
S113303026173707480730F4621B730B840B2029CB
S113304031294A2BA69517940794202531254A2720
S113305058F7660F771F881F20F026173707480791
S113306030F4620B730B840B200D311D411DA095B0
S113307081F7B901842F9158880F96958795089503
S11330809B01AC0152CF9F3F31F0915020F48795C2
S113309077956795B795880F911D9695879597F9BC
S11330A0089591505040660F771F881FD2F70895F6
S11330B097FB072E16F4009406D077FD08D00BD0AA
S11330C007FC05D03EF4909581959F4F0895709527
S11330D061957F4F0895AA1BBB1B51E107C0AA1F2E
S11330E0BB1FA617B70710F0A61BB70B881F991FA5
S11330F05A95A9F780959095BC01CD01089581E07A
S10D310090E0F89400C0F894FFCFAB
S113310AC3F5283F0000C8C2000090410000BE4237
S113311A10E9EFBF3AAF193F4F3B2C3F2497FFBB4F
S113312A21C881BD17D9CE3CFDB30B39CDCC1C3A8D
S9030000FC
